{
  "contractName": "Patent",
  "abi": [
    {
      "constant": true,
      "inputs": [],
      "name": "name",
      "outputs": [
        {
          "name": "",
          "type": "string"
        }
      ],
      "payable": false,
      "stateMutability": "view",
      "type": "function",
      "signature": "0x06fdde03"
    },
    {
      "constant": true,
      "inputs": [
        {
          "name": "",
          "type": "uint256"
        }
      ],
      "name": "patentdetails",
      "outputs": [
        {
          "name": "patent_id",
          "type": "uint256"
        },
        {
          "name": "invention_title",
          "type": "bytes32"
        },
        {
          "name": "inventor_details",
          "type": "bytes32"
        },
        {
          "name": "inventor",
          "type": "address"
        },
        {
          "name": "patent_claims",
          "type": "bytes32"
        },
        {
          "name": "invention_description",
          "type": "bytes32"
        },
        {
          "name": "registereddate",
          "type": "bytes32"
        },
        {
          "name": "expdate",
          "type": "bytes32"
        },
        {
          "name": "renewal_status",
          "type": "bool"
        },
        {
          "name": "patent_status",
          "type": "bool"
        }
      ],
      "payable": false,
      "stateMutability": "view",
      "type": "function",
      "signature": "0x4ac41e13"
    },
    {
      "constant": true,
      "inputs": [],
      "name": "patentCount",
      "outputs": [
        {
          "name": "",
          "type": "uint256"
        }
      ],
      "payable": false,
      "stateMutability": "view",
      "type": "function",
      "signature": "0xb084c841"
    },
    {
      "inputs": [],
      "payable": false,
      "stateMutability": "nonpayable",
      "type": "constructor",
      "signature": "constructor"
    },
    {
      "anonymous": false,
      "inputs": [
        {
          "indexed": false,
          "name": "patent_id",
          "type": "uint256"
        },
        {
          "indexed": false,
          "name": "invention_title",
          "type": "bytes32"
        },
        {
          "indexed": false,
          "name": "inventor_details",
          "type": "bytes32"
        },
        {
          "indexed": false,
          "name": "inventor",
          "type": "address"
        },
        {
          "indexed": false,
          "name": "patent_claims",
          "type": "bytes32"
        },
        {
          "indexed": false,
          "name": "invention_description",
          "type": "bytes32"
        },
        {
          "indexed": false,
          "name": "registereddate",
          "type": "bytes32"
        },
        {
          "indexed": false,
          "name": "expdate",
          "type": "bytes32"
        },
        {
          "indexed": false,
          "name": "renewal_status",
          "type": "bool"
        },
        {
          "indexed": false,
          "name": "patent_status",
          "type": "bool"
        }
      ],
      "name": "PatentRegistered",
      "type": "event",
      "signature": "0x0db0cfc6d8688c0ba2d469887a7ea0374472cc8d82ce4cd15b781a0b6f2cfe5f"
    },
    {
      "constant": false,
      "inputs": [
        {
          "name": "_invention_title",
          "type": "bytes32"
        },
        {
          "name": "_inventor_details",
          "type": "bytes32"
        },
        {
          "name": "_invention_description",
          "type": "bytes32"
        },
        {
          "name": "_patent_claims",
          "type": "bytes32"
        },
        {
          "name": "_registereddate",
          "type": "bytes32"
        },
        {
          "name": "_expdate",
          "type": "bytes32"
        }
      ],
      "name": "registerPatent",
      "outputs": [],
      "payable": false,
      "stateMutability": "nonpayable",
      "type": "function",
      "signature": "0xceb32230"
    }
  ],
  "bytecode": "0x6080604052600060015534801561001557600080fd5b506040805190810160405280601b81526020017f4461707020556e6976657273697479204d61726b6574706c616365000000000081525060009080519060200190610061929190610067565b5061010c565b828054600181600116156101000203166002900490600052602060002090601f016020900481019282601f106100a857805160ff19168380011785556100d6565b828001600101855582156100d6579182015b828111156100d55782518255916020019190600101906100ba565b5b5090506100e391906100e7565b5090565b61010991905b808211156101055760008160009055506001016100ed565b5090565b90565b6108078061011b6000396000f3fe608060405260043610610062576000357c0100000000000000000000000000000000000000000000000000000000900463ffffffff16806306fdde03146100675780634ac41e13146100f7578063b084c841146101b9578063ceb32230146101e4575b600080fd5b34801561007357600080fd5b5061007c610251565b6040518080602001828103825283818151815260200191508051906020019080838360005b838110156100bc5780820151818401526020810190506100a1565b50505050905090810190601f1680156100e95780820380516001836020036101000a031916815260200191505b509250505060405180910390f35b34801561010357600080fd5b506101306004803603602081101561011a57600080fd5b81019080803590602001909291905050506102ef565b604051808b81526020018a81526020018981526020018873ffffffffffffffffffffffffffffffffffffffff1673ffffffffffffffffffffffffffffffffffffffff16815260200187815260200186815260200185815260200184815260200183151515158152602001821515151581526020019a505050505050505050505060405180910390f35b3480156101c557600080fd5b506101ce61037d565b6040518082815260200191505060405180910390f35b3480156101f057600080fd5b5061024f600480360360c081101561020757600080fd5b81019080803590602001909291908035906020019092919080359060200190929190803590602001909291908035906020019092919080359060200190929190505050610383565b005b60008054600181600116156101000203166002900480601f0160208091040260200160405190810160405280929190818152602001828054600181600116156101000203166002900480156102e75780601f106102bc576101008083540402835291602001916102e7565b820191906000526020600020905b8154815290600101906020018083116102ca57829003601f168201915b505050505081565b60026020528060005260406000206000915090508060000154908060010154908060020154908060030160009054906101000a900473ffffffffffffffffffffffffffffffffffffffff16908060040154908060050154908060060154908060070154908060080160009054906101000a900460ff16908060080160019054906101000a900460ff1690508a565b60015481565b6000602060ff161115156103ff576040517f08c379a00000000000000000000000000000000000000000000000000000000081526004018080602001828103825260208152602001807f5265717569726520612076616c69642020696e76656e74696f6e207469746c6581525060200191505060405180910390fd5b6000602060ff161115156104a1576040517f08c379a00000000000000000000000000000000000000000000000000000000081526004018080602001828103825260218152602001807f5265717569726520612076616c69642020696e76656e746f722064657461696c81526020017f730000000000000000000000000000000000000000000000000000000000000081525060400191505060405180910390fd5b6000602060ff16111515610543576040517f08c379a000000000000000000000000000000000000000000000000000000000815260040180806020018281038252602c8152602001807f5265717569726520612076616c69642020746563686e6963616c206669656c6481526020017f206465736372697074696f6e000000000000000000000000000000000000000081525060400191505060405180910390fd5b6000602060ff161115156105bf576040517f08c379a000000000000000000000000000000000000000000000000000000000815260040180806020018281038252601e8152602001807f5265717569726520612076616c69642020706174656e7420636c61696d73000081525060200191505060405180910390fd5b6001600081548092919060010191905055506101406040519081016040528060015481526020018781526020018681526020013373ffffffffffffffffffffffffffffffffffffffff1681526020018581526020018481526020018381526020018281526020016000151581526020016000151581525060026000600154815260200190815260200160002060008201518160000155602082015181600101556040820151816002015560608201518160030160006101000a81548173ffffffffffffffffffffffffffffffffffffffff021916908373ffffffffffffffffffffffffffffffffffffffff1602179055506080820151816004015560a0820151816005015560c0820151816006015560e082015181600701556101008201518160080160006101000a81548160ff0219169083151502179055506101208201518160080160016101000a81548160ff0219169083151502179055509050507f0db0cfc6d8688c0ba2d469887a7ea0374472cc8d82ce4cd15b781a0b6f2cfe5f60015487873388888888600080604051808b81526020018a81526020018981526020018873ffffffffffffffffffffffffffffffffffffffff1673ffffffffffffffffffffffffffffffffffffffff16815260200187815260200186815260200185815260200184815260200183151515158152602001821515151581526020019a505050505050505050505060405180910390a150505050505056fea165627a7a723058204f5e23e4becf5170efbb0365d5b70b0faa2ff6fcaf4611101d80939e97fe99180029",
  "source": "pragma solidity ^0.5.0;\r\n\r\n// Smart Contract\r\n// Use truffle compile to compile the smart contract\r\n// use truffle migrate --reset comand to create a new copy of the smart contract on the blockchain\r\n// Use truffle test to run test\r\ncontract Patent {\r\n\r\n    string public name;\r\n    // keep track of how many patents exist in the smart contract\r\n    uint public patentCount = 0;\r\n    // create and map to store this patent data on the blockchain, use an id as a key, and the value will be a Patent struct\r\n    mapping(uint256 => PatentDetail) public patentdetails;\r\n\r\n    // Patent Details data structure(stores all the attributes of a patent)\r\n    struct PatentDetail{\r\n        uint patent_id;\r\n        bytes32 invention_title;\r\n        bytes32 inventor_details;\r\n        address inventor;\r\n        bytes32 patent_claims;\r\n        bytes32 invention_description;\r\n        bytes32 registereddate;\r\n        bytes32 expdate;\r\n        bool renewal_status;\r\n        bool patent_status;\r\n    }\r\n     // Event after registered patent\r\n    event PatentRegistered(\r\n        uint patent_id,\r\n        bytes32 invention_title,\r\n        bytes32 inventor_details,\r\n        address inventor,\r\n        bytes32 patent_claims,\r\n        bytes32 invention_description,\r\n        bytes32 registereddate,\r\n        bytes32 expdate,\r\n        bool renewal_status,\r\n        bool patent_status\r\n    );\r\n\r\n\r\n    constructor() public {\r\n        name = \"Dapp University Marketplace\";\r\n    }\r\n\r\n    // Function for register a patent\r\n    function registerPatent(bytes32 _invention_title, bytes32 _inventor_details, bytes32 _invention_description, bytes32 _patent_claims, bytes32 _registereddate, bytes32 _expdate) public {\r\n        // Require a valid  invention title\r\n        require(bytes32(_invention_title).length > 0, \"Require a valid  invention title\");\r\n        // Require a valid  inventor details\r\n        require(bytes32(_inventor_details).length > 0, \"Require a valid  inventor details\");\r\n        // Require a valid  technical field description\r\n        require(bytes32(_invention_description).length > 0, \"Require a valid  technical field description\");\r\n        // Require a valid  patent claims\r\n        require(bytes32(_patent_claims).length > 0, \"Require a valid  patent claims\");\r\n        // Increment product count\r\n        patentCount ++;\r\n        // Add patent details\r\n        patentdetails[patentCount] = PatentDetail(patentCount, _invention_title, _inventor_details, msg.sender, _invention_description, _patent_claims, _registereddate, _expdate, false, false);\r\n        // Trigger an event\r\n        emit PatentRegistered(patentCount, _invention_title, _inventor_details, msg.sender, _invention_description, _patent_claims, _registereddate, _expdate, false, false);\r\n    }\r\n\r\n}",
  "sourcePath": "E:/Campuss/4th year/1st sem/INTE 43216 - Research Project/Patent-Blockchain-Project/Blockchain-Based-Patent-Authentication-and-Management-Project/src/contracts/Patent.sol",
  "compiler": {
    "name": "solc",
    "version": "0.5.0+commit.1d4f565a.Emscripten.clang"
  },
  "schemaVersion": "3.0.2",
  "updatedAt": "2021-12-30T05:45:07.044Z",
  "devdoc": {
    "methods": {}
  },
  "userdoc": {
    "methods": {}
  }
}