{
  "contractName": "Patent",
  "abi": [
    {
      "anonymous": false,
      "inputs": [
        {
          "indexed": false,
          "internalType": "bool",
          "name": "USPTO",
          "type": "bool"
        },
        {
          "indexed": false,
          "internalType": "bool",
          "name": "JPO",
          "type": "bool"
        },
        {
          "indexed": false,
          "internalType": "bool",
          "name": "EPO",
          "type": "bool"
        },
        {
          "indexed": false,
          "internalType": "string",
          "name": "USPTO_Approval",
          "type": "string"
        },
        {
          "indexed": false,
          "internalType": "string",
          "name": "JPO_Approval",
          "type": "string"
        },
        {
          "indexed": false,
          "internalType": "string",
          "name": "EPO_Approval",
          "type": "string"
        }
      ],
      "name": "addCheckPatentClaims",
      "type": "event"
    },
    {
      "anonymous": false,
      "inputs": [
        {
          "indexed": false,
          "internalType": "string",
          "name": "invention_title",
          "type": "string"
        },
        {
          "indexed": false,
          "internalType": "string",
          "name": "inventor_details",
          "type": "string"
        },
        {
          "indexed": false,
          "internalType": "address",
          "name": "inventor",
          "type": "address"
        },
        {
          "indexed": false,
          "internalType": "string",
          "name": "technical_field",
          "type": "string"
        },
        {
          "indexed": false,
          "internalType": "string",
          "name": "technical_problem",
          "type": "string"
        },
        {
          "indexed": false,
          "internalType": "string",
          "name": "technical_solution",
          "type": "string"
        },
        {
          "indexed": false,
          "internalType": "string",
          "name": "invention_description",
          "type": "string"
        }
      ],
      "name": "addInventionDetails",
      "type": "event"
    },
    {
      "anonymous": false,
      "inputs": [
        {
          "indexed": false,
          "internalType": "uint256",
          "name": "patent_id",
          "type": "uint256"
        },
        {
          "indexed": false,
          "internalType": "string",
          "name": "registered_date",
          "type": "string"
        },
        {
          "indexed": false,
          "internalType": "string",
          "name": "end_date",
          "type": "string"
        },
        {
          "indexed": false,
          "internalType": "string",
          "name": "license_details",
          "type": "string"
        },
        {
          "indexed": false,
          "internalType": "string",
          "name": "renewal_status",
          "type": "string"
        },
        {
          "indexed": false,
          "internalType": "string",
          "name": "patent_status",
          "type": "string"
        }
      ],
      "name": "addPatentDetails",
      "type": "event"
    },
    {
      "constant": true,
      "inputs": [
        {
          "internalType": "uint256",
          "name": "",
          "type": "uint256"
        }
      ],
      "name": "checkpatentclaims",
      "outputs": [
        {
          "internalType": "uint256",
          "name": "patent_id",
          "type": "uint256"
        },
        {
          "internalType": "bool",
          "name": "USPTO",
          "type": "bool"
        },
        {
          "internalType": "bool",
          "name": "JPO",
          "type": "bool"
        },
        {
          "internalType": "bool",
          "name": "EPO",
          "type": "bool"
        },
        {
          "internalType": "string",
          "name": "USPTO_Approval",
          "type": "string"
        },
        {
          "internalType": "string",
          "name": "JPO_Approval",
          "type": "string"
        },
        {
          "internalType": "string",
          "name": "EPO_Approval",
          "type": "string"
        }
      ],
      "payable": false,
      "stateMutability": "view",
      "type": "function"
    },
    {
      "constant": true,
      "inputs": [
        {
          "internalType": "uint256",
          "name": "",
          "type": "uint256"
        }
      ],
      "name": "inventiondetails",
      "outputs": [
        {
          "internalType": "uint256",
          "name": "patent_id",
          "type": "uint256"
        },
        {
          "internalType": "string",
          "name": "invention_title",
          "type": "string"
        },
        {
          "internalType": "string",
          "name": "inventor_details",
          "type": "string"
        },
        {
          "internalType": "address",
          "name": "inventor",
          "type": "address"
        },
        {
          "internalType": "string",
          "name": "technical_field",
          "type": "string"
        },
        {
          "internalType": "string",
          "name": "technical_problem",
          "type": "string"
        },
        {
          "internalType": "string",
          "name": "technical_solution",
          "type": "string"
        },
        {
          "internalType": "string",
          "name": "invention_description",
          "type": "string"
        }
      ],
      "payable": false,
      "stateMutability": "view",
      "type": "function"
    },
    {
      "constant": true,
      "inputs": [],
      "name": "patentCount",
      "outputs": [
        {
          "internalType": "uint256",
          "name": "",
          "type": "uint256"
        }
      ],
      "payable": false,
      "stateMutability": "view",
      "type": "function"
    },
    {
      "constant": true,
      "inputs": [
        {
          "internalType": "uint256",
          "name": "",
          "type": "uint256"
        }
      ],
      "name": "patentdetails",
      "outputs": [
        {
          "internalType": "uint256",
          "name": "patent_id",
          "type": "uint256"
        },
        {
          "internalType": "string",
          "name": "registered_date",
          "type": "string"
        },
        {
          "internalType": "string",
          "name": "end_date",
          "type": "string"
        },
        {
          "internalType": "string",
          "name": "license_details",
          "type": "string"
        },
        {
          "internalType": "string",
          "name": "renewal_status",
          "type": "string"
        },
        {
          "internalType": "string",
          "name": "patent_status",
          "type": "string"
        }
      ],
      "payable": false,
      "stateMutability": "view",
      "type": "function"
    },
    {
      "constant": false,
      "inputs": [
        {
          "internalType": "string",
          "name": "_invention_title",
          "type": "string"
        },
        {
          "internalType": "string",
          "name": "_inventor_details",
          "type": "string"
        },
        {
          "internalType": "string",
          "name": "_technical_field",
          "type": "string"
        },
        {
          "internalType": "string",
          "name": "_technical_problem",
          "type": "string"
        },
        {
          "internalType": "string",
          "name": "_technical_solution",
          "type": "string"
        },
        {
          "internalType": "string",
          "name": "_invention_description",
          "type": "string"
        },
        {
          "internalType": "string",
          "name": "_registered_date",
          "type": "string"
        },
        {
          "internalType": "string",
          "name": "_end_date",
          "type": "string"
        },
        {
          "internalType": "string",
          "name": "_license_details",
          "type": "string"
        },
        {
          "internalType": "string",
          "name": "_renewal_status",
          "type": "string"
        },
        {
          "internalType": "string",
          "name": "_patent_status",
          "type": "string"
        },
        {
          "internalType": "bool",
          "name": "_USPTO",
          "type": "bool"
        },
        {
          "internalType": "bool",
          "name": "_JPO",
          "type": "bool"
        },
        {
          "internalType": "bool",
          "name": "_EPO",
          "type": "bool"
        }
      ],
      "name": "registerPatent",
      "outputs": [],
      "payable": false,
      "stateMutability": "nonpayable",
      "type": "function"
    },
    {
      "constant": false,
      "inputs": [
        {
          "internalType": "bool",
          "name": "_USPTO",
          "type": "bool"
        },
        {
          "internalType": "bool",
          "name": "_JPO",
          "type": "bool"
        },
        {
          "internalType": "bool",
          "name": "_EPO",
          "type": "bool"
        }
      ],
      "name": "handlePatentClaims",
      "outputs": [],
      "payable": false,
      "stateMutability": "nonpayable",
      "type": "function"
    }
  ],
  "bytecode": "0x60806040526000805534801561001457600080fd5b506127a5806100246000396000f3fe608060405234801561001057600080fd5b50600436106100625760003560e01c80633a9f6df3146100675780634ac41e13146103645780634ca00d95146105c25780634fcb5a181461060a578063b018cfee14610cd0578063b084c84114610e77575b600080fd5b6100936004803603602081101561007d57600080fd5b8101908080359060200190929190505050610e95565b6040518089815260200180602001806020018873ffffffffffffffffffffffffffffffffffffffff1673ffffffffffffffffffffffffffffffffffffffff1681526020018060200180602001806020018060200187810387528e818151815260200191508051906020019080838360005b8381101561011f578082015181840152602081019050610104565b50505050905090810190601f16801561014c5780820380516001836020036101000a031916815260200191505b5087810386528d818151815260200191508051906020019080838360005b8381101561018557808201518184015260208101905061016a565b50505050905090810190601f1680156101b25780820380516001836020036101000a031916815260200191505b5087810385528b818151815260200191508051906020019080838360005b838110156101eb5780820151818401526020810190506101d0565b50505050905090810190601f1680156102185780820380516001836020036101000a031916815260200191505b5087810384528a818151815260200191508051906020019080838360005b83811015610251578082015181840152602081019050610236565b50505050905090810190601f16801561027e5780820380516001836020036101000a031916815260200191505b50878103835289818151815260200191508051906020019080838360005b838110156102b757808201518184015260208101905061029c565b50505050905090810190601f1680156102e45780820380516001836020036101000a031916815260200191505b50878103825288818151815260200191508051906020019080838360005b8381101561031d578082015181840152602081019050610302565b50505050905090810190601f16801561034a5780820380516001836020036101000a031916815260200191505b509e50505050505050505050505050505060405180910390f35b6103906004803603602081101561037a57600080fd5b810190808035906020019092919050505061128d565b60405180878152602001806020018060200180602001806020018060200186810386528b818151815260200191508051906020019080838360005b838110156103e65780820151818401526020810190506103cb565b50505050905090810190601f1680156104135780820380516001836020036101000a031916815260200191505b5086810385528a818151815260200191508051906020019080838360005b8381101561044c578082015181840152602081019050610431565b50505050905090810190601f1680156104795780820380516001836020036101000a031916815260200191505b50868103845289818151815260200191508051906020019080838360005b838110156104b2578082015181840152602081019050610497565b50505050905090810190601f1680156104df5780820380516001836020036101000a031916815260200191505b50868103835288818151815260200191508051906020019080838360005b838110156105185780820151818401526020810190506104fd565b50505050905090810190601f1680156105455780820380516001836020036101000a031916815260200191505b50868103825287818151815260200191508051906020019080838360005b8381101561057e578082015181840152602081019050610563565b50505050905090810190601f1680156105ab5780820380516001836020036101000a031916815260200191505b509b50505050505050505050505060405180910390f35b610608600480360360608110156105d857600080fd5b810190808035151590602001909291908035151590602001909291908035151590602001909291905050506115c1565b005b610cce60048036036101c081101561062157600080fd5b810190808035906020019064010000000081111561063e57600080fd5b82018360208201111561065057600080fd5b8035906020019184600183028401116401000000008311171561067257600080fd5b91908080601f016020809104026020016040519081016040528093929190818152602001838380828437600081840152601f19601f820116905080830192505050505050509192919290803590602001906401000000008111156106d557600080fd5b8201836020820111156106e757600080fd5b8035906020019184600183028401116401000000008311171561070957600080fd5b91908080601f016020809104026020016040519081016040528093929190818152602001838380828437600081840152601f19601f8201169050808301925050505050505091929192908035906020019064010000000081111561076c57600080fd5b82018360208201111561077e57600080fd5b803590602001918460018302840111640100000000831117156107a057600080fd5b91908080601f016020809104026020016040519081016040528093929190818152602001838380828437600081840152601f19601f8201169050808301925050505050505091929192908035906020019064010000000081111561080357600080fd5b82018360208201111561081557600080fd5b8035906020019184600183028401116401000000008311171561083757600080fd5b91908080601f016020809104026020016040519081016040528093929190818152602001838380828437600081840152601f19601f8201169050808301925050505050505091929192908035906020019064010000000081111561089a57600080fd5b8201836020820111156108ac57600080fd5b803590602001918460018302840111640100000000831117156108ce57600080fd5b91908080601f016020809104026020016040519081016040528093929190818152602001838380828437600081840152601f19601f8201169050808301925050505050505091929192908035906020019064010000000081111561093157600080fd5b82018360208201111561094357600080fd5b8035906020019184600183028401116401000000008311171561096557600080fd5b91908080601f016020809104026020016040519081016040528093929190818152602001838380828437600081840152601f19601f820116905080830192505050505050509192919290803590602001906401000000008111156109c857600080fd5b8201836020820111156109da57600080fd5b803590602001918460018302840111640100000000831117156109fc57600080fd5b91908080601f016020809104026020016040519081016040528093929190818152602001838380828437600081840152601f19601f82011690508083019250505050505050919291929080359060200190640100000000811115610a5f57600080fd5b820183602082011115610a7157600080fd5b80359060200191846001830284011164010000000083111715610a9357600080fd5b91908080601f016020809104026020016040519081016040528093929190818152602001838380828437600081840152601f19601f82011690508083019250505050505050919291929080359060200190640100000000811115610af657600080fd5b820183602082011115610b0857600080fd5b80359060200191846001830284011164010000000083111715610b2a57600080fd5b91908080601f016020809104026020016040519081016040528093929190818152602001838380828437600081840152601f19601f82011690508083019250505050505050919291929080359060200190640100000000811115610b8d57600080fd5b820183602082011115610b9f57600080fd5b80359060200191846001830284011164010000000083111715610bc157600080fd5b91908080601f016020809104026020016040519081016040528093929190818152602001838380828437600081840152601f19601f82011690508083019250505050505050919291929080359060200190640100000000811115610c2457600080fd5b820183602082011115610c3657600080fd5b80359060200191846001830284011164010000000083111715610c5857600080fd5b91908080601f016020809104026020016040519081016040528093929190818152602001838380828437600081840152601f19601f820116905080830192505050505050509192919290803515159060200190929190803515159060200190929190803515159060200190929190505050611a04565b005b610cfc60048036036020811015610ce657600080fd5b8101908080359060200190929190505050612471565b60405180888152602001871515151581526020018615151515815260200185151515158152602001806020018060200180602001848103845287818151815260200191508051906020019080838360005b83811015610d68578082015181840152602081019050610d4d565b50505050905090810190601f168015610d955780820380516001836020036101000a031916815260200191505b50848103835286818151815260200191508051906020019080838360005b83811015610dce578082015181840152602081019050610db3565b50505050905090810190601f168015610dfb5780820380516001836020036101000a031916815260200191505b50848103825285818151815260200191508051906020019080838360005b83811015610e34578082015181840152602081019050610e19565b50505050905090810190601f168015610e615780820380516001836020036101000a031916815260200191505b509a505050505050505050505060405180910390f35b610e7f6126a2565b6040518082815260200191505060405180910390f35b6001602052806000526040600020600091509050806000015490806001018054600181600116156101000203166002900480601f016020809104026020016040519081016040528092919081815260200182805460018160011615610100020316600290048015610f475780601f10610f1c57610100808354040283529160200191610f47565b820191906000526020600020905b815481529060010190602001808311610f2a57829003601f168201915b505050505090806002018054600181600116156101000203166002900480601f016020809104026020016040519081016040528092919081815260200182805460018160011615610100020316600290048015610fe55780601f10610fba57610100808354040283529160200191610fe5565b820191906000526020600020905b815481529060010190602001808311610fc857829003601f168201915b5050505050908060030160009054906101000a900473ffffffffffffffffffffffffffffffffffffffff1690806004018054600181600116156101000203166002900480601f0160208091040260200160405190810160405280929190818152602001828054600181600116156101000203166002900480156110a95780601f1061107e576101008083540402835291602001916110a9565b820191906000526020600020905b81548152906001019060200180831161108c57829003601f168201915b505050505090806005018054600181600116156101000203166002900480601f0160208091040260200160405190810160405280929190818152602001828054600181600116156101000203166002900480156111475780601f1061111c57610100808354040283529160200191611147565b820191906000526020600020905b81548152906001019060200180831161112a57829003601f168201915b505050505090806006018054600181600116156101000203166002900480601f0160208091040260200160405190810160405280929190818152602001828054600181600116156101000203166002900480156111e55780601f106111ba576101008083540402835291602001916111e5565b820191906000526020600020905b8154815290600101906020018083116111c857829003601f168201915b505050505090806007018054600181600116156101000203166002900480601f0160208091040260200160405190810160405280929190818152602001828054600181600116156101000203166002900480156112835780601f1061125857610100808354040283529160200191611283565b820191906000526020600020905b81548152906001019060200180831161126657829003601f168201915b5050505050905088565b6002602052806000526040600020600091509050806000015490806001018054600181600116156101000203166002900480601f01602080910402602001604051908101604052809291908181526020018280546001816001161561010002031660029004801561133f5780601f106113145761010080835404028352916020019161133f565b820191906000526020600020905b81548152906001019060200180831161132257829003601f168201915b505050505090806002018054600181600116156101000203166002900480601f0160208091040260200160405190810160405280929190818152602001828054600181600116156101000203166002900480156113dd5780601f106113b2576101008083540402835291602001916113dd565b820191906000526020600020905b8154815290600101906020018083116113c057829003601f168201915b505050505090806003018054600181600116156101000203166002900480601f01602080910402602001604051908101604052809291908181526020018280546001816001161561010002031660029004801561147b5780601f106114505761010080835404028352916020019161147b565b820191906000526020600020905b81548152906001019060200180831161145e57829003601f168201915b505050505090806004018054600181600116156101000203166002900480601f0160208091040260200160405190810160405280929190818152602001828054600181600116156101000203166002900480156115195780601f106114ee57610100808354040283529160200191611519565b820191906000526020600020905b8154815290600101906020018083116114fc57829003601f168201915b505050505090806005018054600181600116156101000203166002900480601f0160208091040260200160405190810160405280929190818152602001828054600181600116156101000203166002900480156115b75780601f1061158c576101008083540402835291602001916115b7565b820191906000526020600020905b81548152906001019060200180831161159a57829003601f168201915b5050505050905086565b6060806060600115158615151415611610576040518060400160405280600781526020017f50656e64696e67000000000000000000000000000000000000000000000000008152509250611649565b6040518060400160405280600481526020017f4e554c4c0000000000000000000000000000000000000000000000000000000081525092505b600115158515151415611693576040518060400160405280600781526020017f50656e64696e670000000000000000000000000000000000000000000000000081525091506116cc565b6040518060400160405280600481526020017f4e554c4c0000000000000000000000000000000000000000000000000000000081525091505b600115158415151415611716576040518060400160405280600781526020017f50656e64696e6700000000000000000000000000000000000000000000000000815250905061174f565b6040518060400160405280600481526020017f4e554c4c0000000000000000000000000000000000000000000000000000000081525090505b6040518060e0016040528060005481526020018715158152602001861515815260200185151581526020018481526020018381526020018281525060036000805481526020019081526020016000206000820151816000015560208201518160010160006101000a81548160ff02191690831515021790555060408201518160010160016101000a81548160ff02191690831515021790555060608201518160010160026101000a81548160ff02191690831515021790555060808201518160020190805190602001906118249291906126a8565b5060a08201518160030190805190602001906118419291906126a8565b5060c082015181600401908051906020019061185e9291906126a8565b509050507fb1c55458fefed9de3cd673b9d60ae6ffad341df945f664ada0c69ca08622acb086868686868660405180871515151581526020018615151515815260200185151515158152602001806020018060200180602001848103845287818151815260200191508051906020019080838360005b838110156118ef5780820151818401526020810190506118d4565b50505050905090810190601f16801561191c5780820380516001836020036101000a031916815260200191505b50848103835286818151815260200191508051906020019080838360005b8381101561195557808201518184015260208101905061193a565b50505050905090810190601f1680156119825780820380516001836020036101000a031916815260200191505b50848103825285818151815260200191508051906020019080838360005b838110156119bb5780820151818401526020810190506119a0565b50505050905090810190601f1680156119e85780820380516001836020036101000a031916815260200191505b50995050505050505050505060405180910390a1505050505050565b60008e5111611a7b576040517f08c379a00000000000000000000000000000000000000000000000000000000081526004018080602001828103825260178152602001807f5265717569726520696e76656e74696f6e207469746c6500000000000000000081525060200191505060405180910390fd5b60008d5111611af2576040517f08c379a00000000000000000000000000000000000000000000000000000000081526004018080602001828103825260188152602001807f5265717569726520696e76656e746f722064657461696c73000000000000000081525060200191505060405180910390fd5b60008c5111611b4c576040517f08c379a000000000000000000000000000000000000000000000000000000000815260040180806020018281038252602381526020018061274e6023913960400191505060405180910390fd5b60008b5111611bc3576040517f08c379a00000000000000000000000000000000000000000000000000000000081526004018080602001828103825260198152602001807f5265717569726520746563686e6963616c2070726f626c656d0000000000000081525060200191505060405180910390fd5b60008a5111611c3a576040517f08c379a000000000000000000000000000000000000000000000000000000000815260040180806020018281038252601a8152602001807f5265717569726520746563686e6963616c20736f6c7574696f6e00000000000081525060200191505060405180910390fd5b6000895111611cb1576040517f08c379a000000000000000000000000000000000000000000000000000000000815260040180806020018281038252601d8152602001807f5265717569726520696e76656e74696f6e206465736372697074696f6e00000081525060200191505060405180910390fd5b6000808154809291906001019190505550611ccd8383836115c1565b60405180610100016040528060005481526020018f81526020018e81526020013373ffffffffffffffffffffffffffffffffffffffff1681526020018d81526020018c81526020018b81526020018a8152506001600080548152602001908152602001600020600082015181600001556020820151816001019080519060200190611d599291906126a8565b506040820151816002019080519060200190611d769291906126a8565b5060608201518160030160006101000a81548173ffffffffffffffffffffffffffffffffffffffff021916908373ffffffffffffffffffffffffffffffffffffffff1602179055506080820151816004019080519060200190611dda9291906126a8565b5060a0820151816005019080519060200190611df79291906126a8565b5060c0820151816006019080519060200190611e149291906126a8565b5060e0820151816007019080519060200190611e319291906126a8565b509050506040518060c001604052806000548152602001898152602001888152602001878152602001868152602001858152506002600080548152602001908152602001600020600082015181600001556020820151816001019080519060200190611e9e9291906126a8565b506040820151816002019080519060200190611ebb9291906126a8565b506060820151816003019080519060200190611ed89291906126a8565b506080820151816004019080519060200190611ef59291906126a8565b5060a0820151816005019080519060200190611f129291906126a8565b509050507f6fcae015bd932120bda37eab1da790873390815c02c1521af40ad19580f66b328e8e338f8f8f8f6040518080602001806020018873ffffffffffffffffffffffffffffffffffffffff1673ffffffffffffffffffffffffffffffffffffffff1681526020018060200180602001806020018060200187810387528e818151815260200191508051906020019080838360005b83811015611fc4578082015181840152602081019050611fa9565b50505050905090810190601f168015611ff15780820380516001836020036101000a031916815260200191505b5087810386528d818151815260200191508051906020019080838360005b8381101561202a57808201518184015260208101905061200f565b50505050905090810190601f1680156120575780820380516001836020036101000a031916815260200191505b5087810385528b818151815260200191508051906020019080838360005b83811015612090578082015181840152602081019050612075565b50505050905090810190601f1680156120bd5780820380516001836020036101000a031916815260200191505b5087810384528a818151815260200191508051906020019080838360005b838110156120f65780820151818401526020810190506120db565b50505050905090810190601f1680156121235780820380516001836020036101000a031916815260200191505b50878103835289818151815260200191508051906020019080838360005b8381101561215c578082015181840152602081019050612141565b50505050905090810190601f1680156121895780820380516001836020036101000a031916815260200191505b50878103825288818151815260200191508051906020019080838360005b838110156121c25780820151818401526020810190506121a7565b50505050905090810190601f1680156121ef5780820380516001836020036101000a031916815260200191505b509d505050505050505050505050505060405180910390a17f039dcd896b99df190ca2f3fa704af291e80a210b974974484f5e5dfde68bfc97600054898989898960405180878152602001806020018060200180602001806020018060200186810386528b818151815260200191508051906020019080838360005b8381101561228657808201518184015260208101905061226b565b50505050905090810190601f1680156122b35780820380516001836020036101000a031916815260200191505b5086810385528a818151815260200191508051906020019080838360005b838110156122ec5780820151818401526020810190506122d1565b50505050905090810190601f1680156123195780820380516001836020036101000a031916815260200191505b50868103845289818151815260200191508051906020019080838360005b83811015612352578082015181840152602081019050612337565b50505050905090810190601f16801561237f5780820380516001836020036101000a031916815260200191505b50868103835288818151815260200191508051906020019080838360005b838110156123b857808201518184015260208101905061239d565b50505050905090810190601f1680156123e55780820380516001836020036101000a031916815260200191505b50868103825287818151815260200191508051906020019080838360005b8381101561241e578082015181840152602081019050612403565b50505050905090810190601f16801561244b5780820380516001836020036101000a031916815260200191505b509b50505050505050505050505060405180910390a15050505050505050505050505050565b60036020528060005260406000206000915090508060000154908060010160009054906101000a900460ff16908060010160019054906101000a900460ff16908060010160029054906101000a900460ff1690806002018054600181600116156101000203166002900480601f01602080910402602001604051908101604052809291908181526020018280546001816001161561010002031660029004801561255c5780601f106125315761010080835404028352916020019161255c565b820191906000526020600020905b81548152906001019060200180831161253f57829003601f168201915b505050505090806003018054600181600116156101000203166002900480601f0160208091040260200160405190810160405280929190818152602001828054600181600116156101000203166002900480156125fa5780601f106125cf576101008083540402835291602001916125fa565b820191906000526020600020905b8154815290600101906020018083116125dd57829003601f168201915b505050505090806004018054600181600116156101000203166002900480601f0160208091040260200160405190810160405280929190818152602001828054600181600116156101000203166002900480156126985780601f1061266d57610100808354040283529160200191612698565b820191906000526020600020905b81548152906001019060200180831161267b57829003601f168201915b5050505050905087565b60005481565b828054600181600116156101000203166002900490600052602060002090601f016020900481019282601f106126e957805160ff1916838001178555612717565b82800160010185558215612717579182015b828111156127165782518255916020019190600101906126fb565b5b5090506127249190612728565b5090565b61274a91905b8082111561274657600081600090555060010161272e565b5090565b9056fe5265717569726520746563686e6963616c206669656c64206465736372697074696f6ea265627a7a723158200d9cfc0362bf3b67c4dbdd6df3c9b8e896eab2029349da14636aab96510797ff64736f6c63430005100032",
  "source": "pragma solidity >=0.5.0;\n\n// Smart Contract\n// Use truffle compile to compile the smart contract\n// use truffle migrate --reset comand to create a new copy of the smart contract on the blockchain\n// Use truffle test to run test\ncontract Patent {\n\n    // address public uspto_examiner; \n        \n    // constructor() public {\n    //     uspto_examiner = msg.sender; \n    // }\n    \n    // modifier onlyExaminer() { \n    //     require(msg.sender == uspto_examiner, \"Action can only be performed by Patent Examiner\");\n    //     _;\n    // }\n\n    // keep track of how many patents exist in the smart contract\n    uint public patentCount = 0;\n\n    // Invention Details data structure(stores all the attributes of a Invention)\n    struct InventionDetails{\n        uint patent_id;\n        string invention_title;\n        string inventor_details;\n        address inventor;\n        string technical_field;\n        string technical_problem;\n\t\tstring technical_solution;\n        string invention_description;\n    }\n\n    // create and map to store this invention data on the blockchain, use an id as a key, and the value will be a Invention struct\n    mapping(uint => InventionDetails) public inventiondetails;\n\n    // Patent Details data structure(stores all the attributes of a Patent details)\n    struct PatentDetails{\n        uint patent_id;\n        string registered_date;\n        string end_date;\n        string license_details;\n        string renewal_status;\n        string patent_status;\n    }\n\n    // create and map to store this patent data on the blockchain, use an id as a key, and the value will be a Patent Details struct\n    mapping(uint => PatentDetails) public patentdetails;\n\n    // Check Patent Claims data structure(stores all the checking Patent claims)\n    struct checkPatentClaims{\n        uint patent_id;\n        bool USPTO;\n        bool JPO;\n        bool EPO;\n        string USPTO_Approval;\n        string JPO_Approval;\n        string EPO_Approval;\n    }\n\n    // create and map to store this checking patent claims data on the blockchain, use an id as a key, and the value will be a Check Patent claims struct\n    mapping(uint => checkPatentClaims) public checkpatentclaims;\n\n    // Event after adding invention details\n    event addInventionDetails(\n        string invention_title,\n        string inventor_details,\n        address inventor,\n        string technical_field,\n        string technical_problem,\n\t\tstring technical_solution,\n        string invention_description\n    );\n\n    // Event after adding patent details\n    event addPatentDetails(  \n        uint patent_id,\n        string registered_date,\n        string end_date,\n        string license_details,\n        string renewal_status,\n        string patent_status\n    );\n\n    // Event after adding patent claims\n    event addCheckPatentClaims(  \n        bool USPTO,\n        bool JPO,\n        bool EPO,\n        string USPTO_Approval,\n        string JPO_Approval,\n        string EPO_Approval\n    );\n\n    // Function for register a patent\n    function registerPatent(string memory _invention_title, string memory _inventor_details, string memory _technical_field, string memory _technical_problem, string memory _technical_solution, string memory _invention_description, string memory _registered_date, string memory _end_date, string memory _license_details, string memory _renewal_status, string memory _patent_status, bool _USPTO, bool _JPO, bool _EPO) public {\n        // Require a valid  invention title\n        require(bytes(_invention_title).length > 0, \"Require invention title\");\n        // Require a valid  inventor details\n        require(bytes(_inventor_details).length > 0, \"Require inventor details\");\n        // Require a valid  technical field description\n        require(bytes(_technical_field).length > 0, \"Require technical field description\");\n        // Require a valid  Technical Problem Details\n        require(bytes(_technical_problem).length > 0, \"Require technical problem\");\n        // Require a valid  Technical solution details\n        require(bytes(_technical_solution).length > 0, \"Require technical solution\");\n        // Require a valid  invention description details\n        require(bytes(_invention_description).length > 0, \"Require invention description\");      \n\n        // Increment product count\n        patentCount ++;\n\n        handlePatentClaims(_USPTO, _JPO, _EPO);\n\n        // Add Invention details\n        inventiondetails[patentCount] = InventionDetails(patentCount, _invention_title, _inventor_details, msg.sender, _technical_field, _technical_problem, _technical_solution, _invention_description);\n        // Add Patent details\n        patentdetails[patentCount] = PatentDetails(patentCount, _registered_date, _end_date, _license_details, _renewal_status, _patent_status);\n\n        // Trigger an event\n        emit addInventionDetails(_invention_title, _inventor_details, msg.sender, _technical_field, _technical_problem, _technical_solution, _invention_description);\n        // Trigger an event\n        emit addPatentDetails(patentCount, _registered_date, _end_date, _license_details, _renewal_status, _patent_status);\n    }\n\n     // Function for handle patent claims\n    function handlePatentClaims(bool _USPTO, bool _JPO, bool _EPO) public {\n\n        string memory _USPTO_Status;\n        string memory _JPO_Status;\n        string memory _EPO_Status;\n\n        if(_USPTO == true){\n            _USPTO_Status = \"Pending\";\n        }\n        else{\n            _USPTO_Status = \"NULL\";\n        }\n        if(_JPO == true){\n            _JPO_Status = \"Pending\";\n        }\n        else{\n            _JPO_Status = \"NULL\";\n        }\n        if(_EPO == true){\n            _EPO_Status = \"Pending\";\n        }\n        else{\n            _EPO_Status = \"NULL\";\n        }\n\n        // Add Patent check patent claims details\n        checkpatentclaims[patentCount] = checkPatentClaims(patentCount, _USPTO, _JPO, _EPO, _USPTO_Status, _JPO_Status, _EPO_Status);\n\n        // Trigger an event\n        emit addCheckPatentClaims(_USPTO, _JPO, _EPO, _USPTO_Status, _JPO_Status, _EPO_Status);\n    }\n\n    // function acceptPatentApplicationByUSPTO(uint patent_id) {\n    //     // Fetch the Invention Details\n    //     InventionDetails memory inventiondetail = inventiondetails[patent_id];\n    //     // Fetch the Patent Details\n    //     PatentDetails memory patentdetail = patentdetails[patent_id];\n    //     // Fetch the Patent Details\n    //     PatentClaims memory patentclaim = patentclaims[patent_id];\n    //     // Fetch the patent owner\n    //     address _inventor = inventiondetail.inventor;\n    //     // Make sure the patent has a valid id\n    //     require(inventiondetail.patent_id > 0 && inventiondetail.patent_id <= patentCount);\n    //     // Require that the product has not been accepted already\n    //     require(!patentclaim.USPTO);\n    //     // Require that the buyer is not the seller\n    //     require(_inventor != msg.sender);\n    //     // Transfer ownership to the buyer\n    //     inventiondetail.owner = msg.sender;\n    //     // Mark as purchased\n    //     inventiondetail.purchased = true;\n    //     // Update the product\n    //     products[_id] = inventiondetail;\n    //     // Pay the seller by sending them Ether\n    //     address(_inventor).transfer(msg.value);\n    //     // Trigger an event\n    //     emit ProductPurchased(productCount, inventiondetail.name, inventiondetail.price, msg.sender, true);\n    // }\n\n}",
  "sourcePath": "E:\\Campuss\\4th year\\1st sem\\INTE 43216 - Research Project\\Patent-Blockchain-Project\\Blockchain-Based-Patent-Authentication-and-Management-Project\\src\\contracts\\Patent.sol",
  "compiler": {
    "name": "solc",
    "version": "0.5.16+commit.9c3226ce.Emscripten.clang"
  },
  "schemaVersion": "3.4.4",
  "updatedAt": "2022-02-22T09:40:39.604Z",
  "networkType": "ethereum",
  "devdoc": {
    "methods": {}
  },
  "userdoc": {
    "methods": {}
  }
}