{
  "contractName": "Patent",
  "abi": [
    {
      "anonymous": false,
      "inputs": [
        {
          "indexed": false,
          "internalType": "bool",
          "name": "USPTO",
          "type": "bool"
        },
        {
          "indexed": false,
          "internalType": "bool",
          "name": "JPO",
          "type": "bool"
        },
        {
          "indexed": false,
          "internalType": "bool",
          "name": "EPO",
          "type": "bool"
        },
        {
          "indexed": false,
          "internalType": "string",
          "name": "USPTO_Approval",
          "type": "string"
        },
        {
          "indexed": false,
          "internalType": "string",
          "name": "JPO_Approval",
          "type": "string"
        },
        {
          "indexed": false,
          "internalType": "string",
          "name": "EPO_Approval",
          "type": "string"
        }
      ],
      "name": "addCheckPatentClaims",
      "type": "event"
    },
    {
      "anonymous": false,
      "inputs": [
        {
          "indexed": false,
          "internalType": "string",
          "name": "invention_title",
          "type": "string"
        },
        {
          "indexed": false,
          "internalType": "string",
          "name": "inventor_details",
          "type": "string"
        },
        {
          "indexed": false,
          "internalType": "address",
          "name": "inventor",
          "type": "address"
        },
        {
          "indexed": false,
          "internalType": "string",
          "name": "technical_field",
          "type": "string"
        },
        {
          "indexed": false,
          "internalType": "string",
          "name": "technical_problem",
          "type": "string"
        },
        {
          "indexed": false,
          "internalType": "string",
          "name": "technical_solution",
          "type": "string"
        },
        {
          "indexed": false,
          "internalType": "string",
          "name": "invention_description",
          "type": "string"
        }
      ],
      "name": "addInventionDetails",
      "type": "event"
    },
    {
      "anonymous": false,
      "inputs": [
        {
          "indexed": false,
          "internalType": "uint256",
          "name": "patent_id",
          "type": "uint256"
        },
        {
          "indexed": false,
          "internalType": "string",
          "name": "registered_date",
          "type": "string"
        },
        {
          "indexed": false,
          "internalType": "string",
          "name": "end_date",
          "type": "string"
        },
        {
          "indexed": false,
          "internalType": "string",
          "name": "license_details",
          "type": "string"
        },
        {
          "indexed": false,
          "internalType": "string",
          "name": "renewal_status",
          "type": "string"
        },
        {
          "indexed": false,
          "internalType": "string",
          "name": "patent_status",
          "type": "string"
        }
      ],
      "name": "addPatentDetails",
      "type": "event"
    },
    {
      "anonymous": false,
      "inputs": [
        {
          "indexed": false,
          "internalType": "bool",
          "name": "transfer_ownership",
          "type": "bool"
        },
        {
          "indexed": false,
          "internalType": "string",
          "name": "new_owner",
          "type": "string"
        },
        {
          "indexed": false,
          "internalType": "string",
          "name": "new_owner_details",
          "type": "string"
        }
      ],
      "name": "addTransferOwnershipDetails",
      "type": "event"
    },
    {
      "constant": true,
      "inputs": [
        {
          "internalType": "uint256",
          "name": "",
          "type": "uint256"
        }
      ],
      "name": "checkpatentclaims",
      "outputs": [
        {
          "internalType": "uint256",
          "name": "patent_id",
          "type": "uint256"
        },
        {
          "internalType": "bool",
          "name": "USPTO",
          "type": "bool"
        },
        {
          "internalType": "bool",
          "name": "JPO",
          "type": "bool"
        },
        {
          "internalType": "bool",
          "name": "EPO",
          "type": "bool"
        },
        {
          "internalType": "string",
          "name": "USPTO_Approval",
          "type": "string"
        },
        {
          "internalType": "string",
          "name": "JPO_Approval",
          "type": "string"
        },
        {
          "internalType": "string",
          "name": "EPO_Approval",
          "type": "string"
        }
      ],
      "payable": false,
      "stateMutability": "view",
      "type": "function"
    },
    {
      "constant": true,
      "inputs": [
        {
          "internalType": "uint256",
          "name": "",
          "type": "uint256"
        }
      ],
      "name": "inventiondetails",
      "outputs": [
        {
          "internalType": "uint256",
          "name": "patent_id",
          "type": "uint256"
        },
        {
          "internalType": "string",
          "name": "invention_title",
          "type": "string"
        },
        {
          "internalType": "string",
          "name": "inventor_details",
          "type": "string"
        },
        {
          "internalType": "address",
          "name": "inventor",
          "type": "address"
        },
        {
          "internalType": "string",
          "name": "technical_field",
          "type": "string"
        },
        {
          "internalType": "string",
          "name": "technical_problem",
          "type": "string"
        },
        {
          "internalType": "string",
          "name": "technical_solution",
          "type": "string"
        },
        {
          "internalType": "string",
          "name": "invention_description",
          "type": "string"
        }
      ],
      "payable": false,
      "stateMutability": "view",
      "type": "function"
    },
    {
      "constant": true,
      "inputs": [],
      "name": "patentCount",
      "outputs": [
        {
          "internalType": "uint256",
          "name": "",
          "type": "uint256"
        }
      ],
      "payable": false,
      "stateMutability": "view",
      "type": "function"
    },
    {
      "constant": true,
      "inputs": [
        {
          "internalType": "uint256",
          "name": "",
          "type": "uint256"
        }
      ],
      "name": "patentdetails",
      "outputs": [
        {
          "internalType": "uint256",
          "name": "patent_id",
          "type": "uint256"
        },
        {
          "internalType": "string",
          "name": "registered_date",
          "type": "string"
        },
        {
          "internalType": "string",
          "name": "end_date",
          "type": "string"
        },
        {
          "internalType": "string",
          "name": "license_details",
          "type": "string"
        },
        {
          "internalType": "string",
          "name": "renewal_status",
          "type": "string"
        },
        {
          "internalType": "string",
          "name": "patent_status",
          "type": "string"
        }
      ],
      "payable": false,
      "stateMutability": "view",
      "type": "function"
    },
    {
      "constant": true,
      "inputs": [
        {
          "internalType": "uint256",
          "name": "",
          "type": "uint256"
        }
      ],
      "name": "transferownershipdetails",
      "outputs": [
        {
          "internalType": "uint256",
          "name": "patent_id",
          "type": "uint256"
        },
        {
          "internalType": "bool",
          "name": "transfer_ownership",
          "type": "bool"
        },
        {
          "internalType": "string",
          "name": "new_owner",
          "type": "string"
        },
        {
          "internalType": "string",
          "name": "new_owner_details",
          "type": "string"
        }
      ],
      "payable": false,
      "stateMutability": "view",
      "type": "function"
    },
    {
      "constant": false,
      "inputs": [
        {
          "internalType": "string",
          "name": "_invention_title",
          "type": "string"
        },
        {
          "internalType": "string",
          "name": "_inventor_details",
          "type": "string"
        },
        {
          "internalType": "string",
          "name": "_technical_field",
          "type": "string"
        },
        {
          "internalType": "string",
          "name": "_technical_problem",
          "type": "string"
        },
        {
          "internalType": "string",
          "name": "_technical_solution",
          "type": "string"
        },
        {
          "internalType": "string",
          "name": "_invention_description",
          "type": "string"
        },
        {
          "internalType": "string",
          "name": "_registered_date",
          "type": "string"
        },
        {
          "internalType": "string",
          "name": "_end_date",
          "type": "string"
        },
        {
          "internalType": "string",
          "name": "_license_details",
          "type": "string"
        },
        {
          "internalType": "string",
          "name": "_renewal_status",
          "type": "string"
        },
        {
          "internalType": "string",
          "name": "_patent_status",
          "type": "string"
        },
        {
          "internalType": "bool",
          "name": "_USPTO",
          "type": "bool"
        },
        {
          "internalType": "bool",
          "name": "_JPO",
          "type": "bool"
        },
        {
          "internalType": "bool",
          "name": "_EPO",
          "type": "bool"
        }
      ],
      "name": "registerPatent",
      "outputs": [],
      "payable": false,
      "stateMutability": "nonpayable",
      "type": "function"
    },
    {
      "constant": false,
      "inputs": [
        {
          "internalType": "bool",
          "name": "_USPTO",
          "type": "bool"
        },
        {
          "internalType": "bool",
          "name": "_JPO",
          "type": "bool"
        },
        {
          "internalType": "bool",
          "name": "_EPO",
          "type": "bool"
        }
      ],
      "name": "handlePatentClaims",
      "outputs": [],
      "payable": false,
      "stateMutability": "nonpayable",
      "type": "function"
    },
    {
      "constant": false,
      "inputs": [
        {
          "internalType": "uint256",
          "name": "patent_id",
          "type": "uint256"
        }
      ],
      "name": "checkOwnershipTransfer",
      "outputs": [],
      "payable": false,
      "stateMutability": "nonpayable",
      "type": "function"
    },
    {
      "constant": false,
      "inputs": [
        {
          "internalType": "uint256",
          "name": "patent_id",
          "type": "uint256"
        }
      ],
      "name": "acceptPatentApplicationByUSPTO",
      "outputs": [],
      "payable": false,
      "stateMutability": "nonpayable",
      "type": "function"
    },
    {
      "constant": false,
      "inputs": [
        {
          "internalType": "uint256",
          "name": "patent_id",
          "type": "uint256"
        },
        {
          "internalType": "string",
          "name": "_end_date",
          "type": "string"
        }
      ],
      "name": "acceptPatentApplicationByJPO",
      "outputs": [],
      "payable": false,
      "stateMutability": "nonpayable",
      "type": "function"
    },
    {
      "constant": false,
      "inputs": [
        {
          "internalType": "uint256",
          "name": "patent_id",
          "type": "uint256"
        },
        {
          "internalType": "string",
          "name": "_new_owner",
          "type": "string"
        },
        {
          "internalType": "string",
          "name": "_new_owner_details",
          "type": "string"
        }
      ],
      "name": "ownershipTransfer",
      "outputs": [],
      "payable": false,
      "stateMutability": "nonpayable",
      "type": "function"
    }
  ],
  "bytecode": "0x60806040526000805534801561001457600080fd5b5061525c806100246000396000f3fe608060405234801561001057600080fd5b50600436106100a95760003560e01c8063636bc4f611610071578063636bc4f614610e3c5780637694dc9314610e6a57806388cfbaa914610f2f578063b018cfee14610f5d578063b084c84114611104578063f4fc9cda14611122576100a9565b806334a84bb1146100ae5780633a9f6df3146101d35780634ac41e13146104d05780634ca00d951461072e5780634fcb5a1814610776575b600080fd5b6100da600480360360208110156100c457600080fd5b810190808035906020019092919050505061127e565b60405180858152602001841515151581526020018060200180602001838103835285818151815260200191508051906020019080838360005b8381101561012e578082015181840152602081019050610113565b50505050905090810190601f16801561015b5780820380516001836020036101000a031916815260200191505b50838103825284818151815260200191508051906020019080838360005b83811015610194578082015181840152602081019050610179565b50505050905090810190601f1680156101c15780820380516001836020036101000a031916815260200191505b50965050505050505060405180910390f35b6101ff600480360360208110156101e957600080fd5b81019080803590602001909291905050506113eb565b6040518089815260200180602001806020018873ffffffffffffffffffffffffffffffffffffffff1673ffffffffffffffffffffffffffffffffffffffff1681526020018060200180602001806020018060200187810387528e818151815260200191508051906020019080838360005b8381101561028b578082015181840152602081019050610270565b50505050905090810190601f1680156102b85780820380516001836020036101000a031916815260200191505b5087810386528d818151815260200191508051906020019080838360005b838110156102f15780820151818401526020810190506102d6565b50505050905090810190601f16801561031e5780820380516001836020036101000a031916815260200191505b5087810385528b818151815260200191508051906020019080838360005b8381101561035757808201518184015260208101905061033c565b50505050905090810190601f1680156103845780820380516001836020036101000a031916815260200191505b5087810384528a818151815260200191508051906020019080838360005b838110156103bd5780820151818401526020810190506103a2565b50505050905090810190601f1680156103ea5780820380516001836020036101000a031916815260200191505b50878103835289818151815260200191508051906020019080838360005b83811015610423578082015181840152602081019050610408565b50505050905090810190601f1680156104505780820380516001836020036101000a031916815260200191505b50878103825288818151815260200191508051906020019080838360005b8381101561048957808201518184015260208101905061046e565b50505050905090810190601f1680156104b65780820380516001836020036101000a031916815260200191505b509e50505050505050505050505050505060405180910390f35b6104fc600480360360208110156104e657600080fd5b81019080803590602001909291905050506117e3565b60405180878152602001806020018060200180602001806020018060200186810386528b818151815260200191508051906020019080838360005b83811015610552578082015181840152602081019050610537565b50505050905090810190601f16801561057f5780820380516001836020036101000a031916815260200191505b5086810385528a818151815260200191508051906020019080838360005b838110156105b857808201518184015260208101905061059d565b50505050905090810190601f1680156105e55780820380516001836020036101000a031916815260200191505b50868103845289818151815260200191508051906020019080838360005b8381101561061e578082015181840152602081019050610603565b50505050905090810190601f16801561064b5780820380516001836020036101000a031916815260200191505b50868103835288818151815260200191508051906020019080838360005b83811015610684578082015181840152602081019050610669565b50505050905090810190601f1680156106b15780820380516001836020036101000a031916815260200191505b50868103825287818151815260200191508051906020019080838360005b838110156106ea5780820151818401526020810190506106cf565b50505050905090810190601f1680156107175780820380516001836020036101000a031916815260200191505b509b50505050505050505050505060405180910390f35b6107746004803603606081101561074457600080fd5b81019080803515159060200190929190803515159060200190929190803515159060200190929190505050611b17565b005b610e3a60048036036101c081101561078d57600080fd5b81019080803590602001906401000000008111156107aa57600080fd5b8201836020820111156107bc57600080fd5b803590602001918460018302840111640100000000831117156107de57600080fd5b91908080601f016020809104026020016040519081016040528093929190818152602001838380828437600081840152601f19601f8201169050808301925050505050505091929192908035906020019064010000000081111561084157600080fd5b82018360208201111561085357600080fd5b8035906020019184600183028401116401000000008311171561087557600080fd5b91908080601f016020809104026020016040519081016040528093929190818152602001838380828437600081840152601f19601f820116905080830192505050505050509192919290803590602001906401000000008111156108d857600080fd5b8201836020820111156108ea57600080fd5b8035906020019184600183028401116401000000008311171561090c57600080fd5b91908080601f016020809104026020016040519081016040528093929190818152602001838380828437600081840152601f19601f8201169050808301925050505050505091929192908035906020019064010000000081111561096f57600080fd5b82018360208201111561098157600080fd5b803590602001918460018302840111640100000000831117156109a357600080fd5b91908080601f016020809104026020016040519081016040528093929190818152602001838380828437600081840152601f19601f82011690508083019250505050505050919291929080359060200190640100000000811115610a0657600080fd5b820183602082011115610a1857600080fd5b80359060200191846001830284011164010000000083111715610a3a57600080fd5b91908080601f016020809104026020016040519081016040528093929190818152602001838380828437600081840152601f19601f82011690508083019250505050505050919291929080359060200190640100000000811115610a9d57600080fd5b820183602082011115610aaf57600080fd5b80359060200191846001830284011164010000000083111715610ad157600080fd5b91908080601f016020809104026020016040519081016040528093929190818152602001838380828437600081840152601f19601f82011690508083019250505050505050919291929080359060200190640100000000811115610b3457600080fd5b820183602082011115610b4657600080fd5b80359060200191846001830284011164010000000083111715610b6857600080fd5b91908080601f016020809104026020016040519081016040528093929190818152602001838380828437600081840152601f19601f82011690508083019250505050505050919291929080359060200190640100000000811115610bcb57600080fd5b820183602082011115610bdd57600080fd5b80359060200191846001830284011164010000000083111715610bff57600080fd5b91908080601f016020809104026020016040519081016040528093929190818152602001838380828437600081840152601f19601f82011690508083019250505050505050919291929080359060200190640100000000811115610c6257600080fd5b820183602082011115610c7457600080fd5b80359060200191846001830284011164010000000083111715610c9657600080fd5b91908080601f016020809104026020016040519081016040528093929190818152602001838380828437600081840152601f19601f82011690508083019250505050505050919291929080359060200190640100000000811115610cf957600080fd5b820183602082011115610d0b57600080fd5b80359060200191846001830284011164010000000083111715610d2d57600080fd5b91908080601f016020809104026020016040519081016040528093929190818152602001838380828437600081840152601f19601f82011690508083019250505050505050919291929080359060200190640100000000811115610d9057600080fd5b820183602082011115610da257600080fd5b80359060200191846001830284011164010000000083111715610dc457600080fd5b91908080601f016020809104026020016040519081016040528093929190818152602001838380828437600081840152601f19601f820116905080830192505050505050509192919290803515159060200190929190803515159060200190929190803515159060200190929190505050611f5a565b005b610e6860048036036020811015610e5257600080fd5b81019080803590602001909291905050506129d2565b005b610f2d60048036036040811015610e8057600080fd5b810190808035906020019092919080359060200190640100000000811115610ea757600080fd5b820183602082011115610eb957600080fd5b80359060200191846001830284011164010000000083111715610edb57600080fd5b91908080601f016020809104026020016040519081016040528093929190818152602001838380828437600081840152601f19601f8201169050808301925050505050505091929192905050506133d1565b005b610f5b60048036036020811015610f4557600080fd5b81019080803590602001909291905050506144ff565b005b610f8960048036036020811015610f7357600080fd5b810190808035906020019092919050505061473d565b60405180888152602001871515151581526020018615151515815260200185151515158152602001806020018060200180602001848103845287818151815260200191508051906020019080838360005b83811015610ff5578082015181840152602081019050610fda565b50505050905090810190601f1680156110225780820380516001836020036101000a031916815260200191505b50848103835286818151815260200191508051906020019080838360005b8381101561105b578082015181840152602081019050611040565b50505050905090810190601f1680156110885780820380516001836020036101000a031916815260200191505b50848103825285818151815260200191508051906020019080838360005b838110156110c15780820151818401526020810190506110a6565b50505050905090810190601f1680156110ee5780820380516001836020036101000a031916815260200191505b509a505050505050505050505060405180910390f35b61110c61496e565b6040518082815260200191505060405180910390f35b61127c6004803603606081101561113857600080fd5b81019080803590602001909291908035906020019064010000000081111561115f57600080fd5b82018360208201111561117157600080fd5b8035906020019184600183028401116401000000008311171561119357600080fd5b91908080601f016020809104026020016040519081016040528093929190818152602001838380828437600081840152601f19601f820116905080830192505050505050509192919290803590602001906401000000008111156111f657600080fd5b82018360208201111561120857600080fd5b8035906020019184600183028401116401000000008311171561122a57600080fd5b91908080601f016020809104026020016040519081016040528093929190818152602001838380828437600081840152601f19601f820116905080830192505050505050509192919290505050614974565b005b60046020528060005260406000206000915090508060000154908060010160009054906101000a900460ff1690806002018054600181600116156101000203166002900480601f0160208091040260200160405190810160405280929190818152602001828054600181600116156101000203166002900480156113435780601f1061131857610100808354040283529160200191611343565b820191906000526020600020905b81548152906001019060200180831161132657829003601f168201915b505050505090806003018054600181600116156101000203166002900480601f0160208091040260200160405190810160405280929190818152602001828054600181600116156101000203166002900480156113e15780601f106113b6576101008083540402835291602001916113e1565b820191906000526020600020905b8154815290600101906020018083116113c457829003601f168201915b5050505050905084565b6001602052806000526040600020600091509050806000015490806001018054600181600116156101000203166002900480601f01602080910402602001604051908101604052809291908181526020018280546001816001161561010002031660029004801561149d5780601f106114725761010080835404028352916020019161149d565b820191906000526020600020905b81548152906001019060200180831161148057829003601f168201915b505050505090806002018054600181600116156101000203166002900480601f01602080910402602001604051908101604052809291908181526020018280546001816001161561010002031660029004801561153b5780601f106115105761010080835404028352916020019161153b565b820191906000526020600020905b81548152906001019060200180831161151e57829003601f168201915b5050505050908060030160009054906101000a900473ffffffffffffffffffffffffffffffffffffffff1690806004018054600181600116156101000203166002900480601f0160208091040260200160405190810160405280929190818152602001828054600181600116156101000203166002900480156115ff5780601f106115d4576101008083540402835291602001916115ff565b820191906000526020600020905b8154815290600101906020018083116115e257829003601f168201915b505050505090806005018054600181600116156101000203166002900480601f01602080910402602001604051908101604052809291908181526020018280546001816001161561010002031660029004801561169d5780601f106116725761010080835404028352916020019161169d565b820191906000526020600020905b81548152906001019060200180831161168057829003601f168201915b505050505090806006018054600181600116156101000203166002900480601f01602080910402602001604051908101604052809291908181526020018280546001816001161561010002031660029004801561173b5780601f106117105761010080835404028352916020019161173b565b820191906000526020600020905b81548152906001019060200180831161171e57829003601f168201915b505050505090806007018054600181600116156101000203166002900480601f0160208091040260200160405190810160405280929190818152602001828054600181600116156101000203166002900480156117d95780601f106117ae576101008083540402835291602001916117d9565b820191906000526020600020905b8154815290600101906020018083116117bc57829003601f168201915b5050505050905088565b6002602052806000526040600020600091509050806000015490806001018054600181600116156101000203166002900480601f0160208091040260200160405190810160405280929190818152602001828054600181600116156101000203166002900480156118955780601f1061186a57610100808354040283529160200191611895565b820191906000526020600020905b81548152906001019060200180831161187857829003601f168201915b505050505090806002018054600181600116156101000203166002900480601f0160208091040260200160405190810160405280929190818152602001828054600181600116156101000203166002900480156119335780601f1061190857610100808354040283529160200191611933565b820191906000526020600020905b81548152906001019060200180831161191657829003601f168201915b505050505090806003018054600181600116156101000203166002900480601f0160208091040260200160405190810160405280929190818152602001828054600181600116156101000203166002900480156119d15780601f106119a6576101008083540402835291602001916119d1565b820191906000526020600020905b8154815290600101906020018083116119b457829003601f168201915b505050505090806004018054600181600116156101000203166002900480601f016020809104026020016040519081016040528092919081815260200182805460018160011615610100020316600290048015611a6f5780601f10611a4457610100808354040283529160200191611a6f565b820191906000526020600020905b815481529060010190602001808311611a5257829003601f168201915b505050505090806005018054600181600116156101000203166002900480601f016020809104026020016040519081016040528092919081815260200182805460018160011615610100020316600290048015611b0d5780601f10611ae257610100808354040283529160200191611b0d565b820191906000526020600020905b815481529060010190602001808311611af057829003601f168201915b5050505050905086565b6060806060600115158615151415611b66576040518060400160405280600781526020017f50656e64696e67000000000000000000000000000000000000000000000000008152509250611b9f565b6040518060400160405280600481526020017f4e554c4c0000000000000000000000000000000000000000000000000000000081525092505b600115158515151415611be9576040518060400160405280600781526020017f50656e64696e67000000000000000000000000000000000000000000000000008152509150611c22565b6040518060400160405280600481526020017f4e554c4c0000000000000000000000000000000000000000000000000000000081525091505b600115158415151415611c6c576040518060400160405280600781526020017f50656e64696e67000000000000000000000000000000000000000000000000008152509050611ca5565b6040518060400160405280600481526020017f4e554c4c0000000000000000000000000000000000000000000000000000000081525090505b6040518060e0016040528060005481526020018715158152602001861515815260200185151581526020018481526020018381526020018281525060036000805481526020019081526020016000206000820151816000015560208201518160010160006101000a81548160ff02191690831515021790555060408201518160010160016101000a81548160ff02191690831515021790555060608201518160010160026101000a81548160ff0219169083151502179055506080820151816002019080519060200190611d7a929190615061565b5060a0820151816003019080519060200190611d97929190615061565b5060c0820151816004019080519060200190611db4929190615061565b509050507fb1c55458fefed9de3cd673b9d60ae6ffad341df945f664ada0c69ca08622acb086868686868660405180871515151581526020018615151515815260200185151515158152602001806020018060200180602001848103845287818151815260200191508051906020019080838360005b83811015611e45578082015181840152602081019050611e2a565b50505050905090810190601f168015611e725780820380516001836020036101000a031916815260200191505b50848103835286818151815260200191508051906020019080838360005b83811015611eab578082015181840152602081019050611e90565b50505050905090810190601f168015611ed85780820380516001836020036101000a031916815260200191505b50848103825285818151815260200191508051906020019080838360005b83811015611f11578082015181840152602081019050611ef6565b50505050905090810190601f168015611f3e5780820380516001836020036101000a031916815260200191505b50995050505050505050505060405180910390a1505050505050565b60008e5111611fd1576040517f08c379a00000000000000000000000000000000000000000000000000000000081526004018080602001828103825260178152602001807f5265717569726520696e76656e74696f6e207469746c6500000000000000000081525060200191505060405180910390fd5b60008d5111612048576040517f08c379a00000000000000000000000000000000000000000000000000000000081526004018080602001828103825260188152602001807f5265717569726520696e76656e746f722064657461696c73000000000000000081525060200191505060405180910390fd5b60008c51116120a2576040517f08c379a00000000000000000000000000000000000000000000000000000000081526004018080602001828103825260238152602001806152056023913960400191505060405180910390fd5b60008b5111612119576040517f08c379a00000000000000000000000000000000000000000000000000000000081526004018080602001828103825260198152602001807f5265717569726520746563686e6963616c2070726f626c656d0000000000000081525060200191505060405180910390fd5b60008a5111612190576040517f08c379a000000000000000000000000000000000000000000000000000000000815260040180806020018281038252601a8152602001807f5265717569726520746563686e6963616c20736f6c7574696f6e00000000000081525060200191505060405180910390fd5b6000895111612207576040517f08c379a000000000000000000000000000000000000000000000000000000000815260040180806020018281038252601d8152602001807f5265717569726520696e76656e74696f6e206465736372697074696f6e00000081525060200191505060405180910390fd5b6000808154809291906001019190505550612223838383611b17565b60405180610100016040528060005481526020018f81526020018e81526020013373ffffffffffffffffffffffffffffffffffffffff1681526020018d81526020018c81526020018b81526020018a81525060016000805481526020019081526020016000206000820151816000015560208201518160010190805190602001906122af929190615061565b5060408201518160020190805190602001906122cc929190615061565b5060608201518160030160006101000a81548173ffffffffffffffffffffffffffffffffffffffff021916908373ffffffffffffffffffffffffffffffffffffffff1602179055506080820151816004019080519060200190612330929190615061565b5060a082015181600501908051906020019061234d929190615061565b5060c082015181600601908051906020019061236a929190615061565b5060e0820151816007019080519060200190612387929190615061565b509050506040518060c0016040528060005481526020018981526020018881526020018781526020018681526020018581525060026000805481526020019081526020016000206000820151816000015560208201518160010190805190602001906123f4929190615061565b506040820151816002019080519060200190612411929190615061565b50606082015181600301908051906020019061242e929190615061565b50608082015181600401908051906020019061244b929190615061565b5060a0820151816005019080519060200190612468929190615061565b509050506124776000546144ff565b7f6fcae015bd932120bda37eab1da790873390815c02c1521af40ad19580f66b328e8e338f8f8f8f6040518080602001806020018873ffffffffffffffffffffffffffffffffffffffff1673ffffffffffffffffffffffffffffffffffffffff1681526020018060200180602001806020018060200187810387528e818151815260200191508051906020019080838360005b8381101561252557808201518184015260208101905061250a565b50505050905090810190601f1680156125525780820380516001836020036101000a031916815260200191505b5087810386528d818151815260200191508051906020019080838360005b8381101561258b578082015181840152602081019050612570565b50505050905090810190601f1680156125b85780820380516001836020036101000a031916815260200191505b5087810385528b818151815260200191508051906020019080838360005b838110156125f15780820151818401526020810190506125d6565b50505050905090810190601f16801561261e5780820380516001836020036101000a031916815260200191505b5087810384528a818151815260200191508051906020019080838360005b8381101561265757808201518184015260208101905061263c565b50505050905090810190601f1680156126845780820380516001836020036101000a031916815260200191505b50878103835289818151815260200191508051906020019080838360005b838110156126bd5780820151818401526020810190506126a2565b50505050905090810190601f1680156126ea5780820380516001836020036101000a031916815260200191505b50878103825288818151815260200191508051906020019080838360005b83811015612723578082015181840152602081019050612708565b50505050905090810190601f1680156127505780820380516001836020036101000a031916815260200191505b509d505050505050505050505050505060405180910390a17f039dcd896b99df190ca2f3fa704af291e80a210b974974484f5e5dfde68bfc97600054898989898960405180878152602001806020018060200180602001806020018060200186810386528b818151815260200191508051906020019080838360005b838110156127e75780820151818401526020810190506127cc565b50505050905090810190601f1680156128145780820380516001836020036101000a031916815260200191505b5086810385528a818151815260200191508051906020019080838360005b8381101561284d578082015181840152602081019050612832565b50505050905090810190601f16801561287a5780820380516001836020036101000a031916815260200191505b50868103845289818151815260200191508051906020019080838360005b838110156128b3578082015181840152602081019050612898565b50505050905090810190601f1680156128e05780820380516001836020036101000a031916815260200191505b50868103835288818151815260200191508051906020019080838360005b838110156129195780820151818401526020810190506128fe565b50505050905090810190601f1680156129465780820380516001836020036101000a031916815260200191505b50868103825287818151815260200191508051906020019080838360005b8381101561297f578082015181840152602081019050612964565b50505050905090810190601f1680156129ac5780820380516001836020036101000a031916815260200191505b509b50505050505050505050505060405180910390a15050505050505050505050505050565b6129da6150e1565b600160008381526020019081526020016000206040518061010001604052908160008201548152602001600182018054600181600116156101000203166002900480601f016020809104026020016040519081016040528092919081815260200182805460018160011615610100020316600290048015612a9c5780601f10612a7157610100808354040283529160200191612a9c565b820191906000526020600020905b815481529060010190602001808311612a7f57829003601f168201915b50505050508152602001600282018054600181600116156101000203166002900480601f016020809104026020016040519081016040528092919081815260200182805460018160011615610100020316600290048015612b3e5780601f10612b1357610100808354040283529160200191612b3e565b820191906000526020600020905b815481529060010190602001808311612b2157829003601f168201915b505050505081526020016003820160009054906101000a900473ffffffffffffffffffffffffffffffffffffffff1673ffffffffffffffffffffffffffffffffffffffff1673ffffffffffffffffffffffffffffffffffffffff168152602001600482018054600181600116156101000203166002900480601f016020809104026020016040519081016040528092919081815260200182805460018160011615610100020316600290048015612c365780601f10612c0b57610100808354040283529160200191612c36565b820191906000526020600020905b815481529060010190602001808311612c1957829003601f168201915b50505050508152602001600582018054600181600116156101000203166002900480601f016020809104026020016040519081016040528092919081815260200182805460018160011615610100020316600290048015612cd85780601f10612cad57610100808354040283529160200191612cd8565b820191906000526020600020905b815481529060010190602001808311612cbb57829003601f168201915b50505050508152602001600682018054600181600116156101000203166002900480601f016020809104026020016040519081016040528092919081815260200182805460018160011615610100020316600290048015612d7a5780601f10612d4f57610100808354040283529160200191612d7a565b820191906000526020600020905b815481529060010190602001808311612d5d57829003601f168201915b50505050508152602001600782018054600181600116156101000203166002900480601f016020809104026020016040519081016040528092919081815260200182805460018160011615610100020316600290048015612e1c5780601f10612df157610100808354040283529160200191612e1c565b820191906000526020600020905b815481529060010190602001808311612dff57829003601f168201915b5050505050815250509050612e2f61513c565b600360008481526020019081526020016000206040518060e0016040529081600082015481526020016001820160009054906101000a900460ff161515151581526020016001820160019054906101000a900460ff161515151581526020016001820160029054906101000a900460ff16151515158152602001600282018054600181600116156101000203166002900480601f016020809104026020016040519081016040528092919081815260200182805460018160011615610100020316600290048015612f415780601f10612f1657610100808354040283529160200191612f41565b820191906000526020600020905b815481529060010190602001808311612f2457829003601f168201915b50505050508152602001600382018054600181600116156101000203166002900480601f016020809104026020016040519081016040528092919081815260200182805460018160011615610100020316600290048015612fe35780601f10612fb857610100808354040283529160200191612fe3565b820191906000526020600020905b815481529060010190602001808311612fc657829003601f168201915b50505050508152602001600482018054600181600116156101000203166002900480601f0160208091040260200160405190810160405280929190818152602001828054600181600116156101000203166002900480156130855780601f1061305a57610100808354040283529160200191613085565b820191906000526020600020905b81548152906001019060200180831161306857829003601f168201915b5050505050815250509050600082606001519050600083600001511180156130b35750600054836000015111155b6130bc57600080fd5b81602001516130ca57600080fd5b3373ffffffffffffffffffffffffffffffffffffffff168173ffffffffffffffffffffffffffffffffffffffff16141561310357600080fd5b6040518060400160405280600881526020017f417070726f766564000000000000000000000000000000000000000000000000815250826080018190525081600360008681526020019081526020016000206000820151816000015560208201518160010160006101000a81548160ff02191690831515021790555060408201518160010160016101000a81548160ff02191690831515021790555060608201518160010160026101000a81548160ff02191690831515021790555060808201518160020190805190602001906131db929190615061565b5060a08201518160030190805190602001906131f8929190615061565b5060c0820151816004019080519060200190613215929190615061565b509050507fb1c55458fefed9de3cd673b9d60ae6ffad341df945f664ada0c69ca08622acb082602001518360400151846060015185608001518660a001518760c0015160405180871515151581526020018615151515815260200185151515158152602001806020018060200180602001848103845287818151815260200191508051906020019080838360005b838110156132be5780820151818401526020810190506132a3565b50505050905090810190601f1680156132eb5780820380516001836020036101000a031916815260200191505b50848103835286818151815260200191508051906020019080838360005b83811015613324578082015181840152602081019050613309565b50505050905090810190601f1680156133515780820380516001836020036101000a031916815260200191505b50848103825285818151815260200191508051906020019080838360005b8381101561338a57808201518184015260208101905061336f565b50505050905090810190601f1680156133b75780820380516001836020036101000a031916815260200191505b50995050505050505050505060405180910390a150505050565b6133d96150e1565b600160008481526020019081526020016000206040518061010001604052908160008201548152602001600182018054600181600116156101000203166002900480601f01602080910402602001604051908101604052809291908181526020018280546001816001161561010002031660029004801561349b5780601f106134705761010080835404028352916020019161349b565b820191906000526020600020905b81548152906001019060200180831161347e57829003601f168201915b50505050508152602001600282018054600181600116156101000203166002900480601f01602080910402602001604051908101604052809291908181526020018280546001816001161561010002031660029004801561353d5780601f106135125761010080835404028352916020019161353d565b820191906000526020600020905b81548152906001019060200180831161352057829003601f168201915b505050505081526020016003820160009054906101000a900473ffffffffffffffffffffffffffffffffffffffff1673ffffffffffffffffffffffffffffffffffffffff1673ffffffffffffffffffffffffffffffffffffffff168152602001600482018054600181600116156101000203166002900480601f0160208091040260200160405190810160405280929190818152602001828054600181600116156101000203166002900480156136355780601f1061360a57610100808354040283529160200191613635565b820191906000526020600020905b81548152906001019060200180831161361857829003601f168201915b50505050508152602001600582018054600181600116156101000203166002900480601f0160208091040260200160405190810160405280929190818152602001828054600181600116156101000203166002900480156136d75780601f106136ac576101008083540402835291602001916136d7565b820191906000526020600020905b8154815290600101906020018083116136ba57829003601f168201915b50505050508152602001600682018054600181600116156101000203166002900480601f0160208091040260200160405190810160405280929190818152602001828054600181600116156101000203166002900480156137795780601f1061374e57610100808354040283529160200191613779565b820191906000526020600020905b81548152906001019060200180831161375c57829003601f168201915b50505050508152602001600782018054600181600116156101000203166002900480601f01602080910402602001604051908101604052809291908181526020018280546001816001161561010002031660029004801561381b5780601f106137f05761010080835404028352916020019161381b565b820191906000526020600020905b8154815290600101906020018083116137fe57829003601f168201915b505050505081525050905061382e61517f565b600260008581526020019081526020016000206040518060c001604052908160008201548152602001600182018054600181600116156101000203166002900480601f0160208091040260200160405190810160405280929190818152602001828054600181600116156101000203166002900480156138ef5780601f106138c4576101008083540402835291602001916138ef565b820191906000526020600020905b8154815290600101906020018083116138d257829003601f168201915b50505050508152602001600282018054600181600116156101000203166002900480601f0160208091040260200160405190810160405280929190818152602001828054600181600116156101000203166002900480156139915780601f1061396657610100808354040283529160200191613991565b820191906000526020600020905b81548152906001019060200180831161397457829003601f168201915b50505050508152602001600382018054600181600116156101000203166002900480601f016020809104026020016040519081016040528092919081815260200182805460018160011615610100020316600290048015613a335780601f10613a0857610100808354040283529160200191613a33565b820191906000526020600020905b815481529060010190602001808311613a1657829003601f168201915b50505050508152602001600482018054600181600116156101000203166002900480601f016020809104026020016040519081016040528092919081815260200182805460018160011615610100020316600290048015613ad55780601f10613aaa57610100808354040283529160200191613ad5565b820191906000526020600020905b815481529060010190602001808311613ab857829003601f168201915b50505050508152602001600582018054600181600116156101000203166002900480601f016020809104026020016040519081016040528092919081815260200182805460018160011615610100020316600290048015613b775780601f10613b4c57610100808354040283529160200191613b77565b820191906000526020600020905b815481529060010190602001808311613b5a57829003601f168201915b5050505050815250509050613b8a61513c565b600360008681526020019081526020016000206040518060e0016040529081600082015481526020016001820160009054906101000a900460ff161515151581526020016001820160019054906101000a900460ff161515151581526020016001820160029054906101000a900460ff16151515158152602001600282018054600181600116156101000203166002900480601f016020809104026020016040519081016040528092919081815260200182805460018160011615610100020316600290048015613c9c5780601f10613c7157610100808354040283529160200191613c9c565b820191906000526020600020905b815481529060010190602001808311613c7f57829003601f168201915b50505050508152602001600382018054600181600116156101000203166002900480601f016020809104026020016040519081016040528092919081815260200182805460018160011615610100020316600290048015613d3e5780601f10613d1357610100808354040283529160200191613d3e565b820191906000526020600020905b815481529060010190602001808311613d2157829003601f168201915b50505050508152602001600482018054600181600116156101000203166002900480601f016020809104026020016040519081016040528092919081815260200182805460018160011615610100020316600290048015613de05780601f10613db557610100808354040283529160200191613de0565b820191906000526020600020905b815481529060010190602001808311613dc357829003601f168201915b5050505050815250509050613df36151b5565b60046000878152602001908152602001600020604051806080016040529081600082015481526020016001820160009054906101000a900460ff16151515158152602001600282018054600181600116156101000203166002900480601f016020809104026020016040519081016040528092919081815260200182805460018160011615610100020316600290048015613ecf5780601f10613ea457610100808354040283529160200191613ecf565b820191906000526020600020905b815481529060010190602001808311613eb257829003601f168201915b50505050508152602001600382018054600181600116156101000203166002900480601f016020809104026020016040519081016040528092919081815260200182805460018160011615610100020316600290048015613f715780601f10613f4657610100808354040283529160200191613f71565b820191906000526020600020905b815481529060010190602001808311613f5457829003601f168201915b505050505081525050905060008460600151905060008560000151118015613f9f5750600054856000015111155b613fa857600080fd5b8260400151613fb657600080fd5b3373ffffffffffffffffffffffffffffffffffffffff168173ffffffffffffffffffffffffffffffffffffffff161415613fef57600080fd5b6040518060400160405280600881526020017f417070726f7665640000000000000000000000000000000000000000000000008152508360a001819052508584604001819052506040518060400160405280600681526020017f416374697665000000000000000000000000000000000000000000000000000081525084608001819052506040518060400160405280600681526020017f41637469766500000000000000000000000000000000000000000000000000008152508460a0018190525060018260200190151590811515815250506040518060400160405280600181526020017f2d0000000000000000000000000000000000000000000000000000000000000081525082604001819052506040518060400160405280600181526020017f2d00000000000000000000000000000000000000000000000000000000000000815250826060018190525082600360008981526020019081526020016000206000820151816000015560208201518160010160006101000a81548160ff02191690831515021790555060408201518160010160016101000a81548160ff02191690831515021790555060608201518160010160026101000a81548160ff02191690831515021790555060808201518160020190805190602001906141d9929190615061565b5060a08201518160030190805190602001906141f6929190615061565b5060c0820151816004019080519060200190614213929190615061565b509050508360026000898152602001908152602001600020600082015181600001556020820151816001019080519060200190614251929190615061565b50604082015181600201908051906020019061426e929190615061565b50606082015181600301908051906020019061428b929190615061565b5060808201518160040190805190602001906142a8929190615061565b5060a08201518160050190805190602001906142c5929190615061565b5090505081600460008981526020019081526020016000206000820151816000015560208201518160010160006101000a81548160ff0219169083151502179055506040820151816002019080519060200190614323929190615061565b506060820151816003019080519060200190614340929190615061565b509050507fb1c55458fefed9de3cd673b9d60ae6ffad341df945f664ada0c69ca08622acb083602001518460400151856060015186608001518760a001518860c0015160405180871515151581526020018615151515815260200185151515158152602001806020018060200180602001848103845287818151815260200191508051906020019080838360005b838110156143e95780820151818401526020810190506143ce565b50505050905090810190601f1680156144165780820380516001836020036101000a031916815260200191505b50848103835286818151815260200191508051906020019080838360005b8381101561444f578082015181840152602081019050614434565b50505050905090810190601f16801561447c5780820380516001836020036101000a031916815260200191505b50848103825285818151815260200191508051906020019080838360005b838110156144b557808201518184015260208101905061449a565b50505050905090810190601f1680156144e25780820380516001836020036101000a031916815260200191505b50995050505050505050505060405180910390a150505050505050565b6145076151b5565b60046000838152602001908152602001600020604051806080016040529081600082015481526020016001820160009054906101000a900460ff16151515158152602001600282018054600181600116156101000203166002900480601f0160208091040260200160405190810160405280929190818152602001828054600181600116156101000203166002900480156145e35780601f106145b8576101008083540402835291602001916145e3565b820191906000526020600020905b8154815290600101906020018083116145c657829003601f168201915b50505050508152602001600382018054600181600116156101000203166002900480601f0160208091040260200160405190810160405280929190818152602001828054600181600116156101000203166002900480156146855780601f1061465a57610100808354040283529160200191614685565b820191906000526020600020905b81548152906001019060200180831161466857829003601f168201915b50505050508152505090506040518060800160405280838152602001826020015115158152602001826040015181526020018260600151815250600460008481526020019081526020016000206000820151816000015560208201518160010160006101000a81548160ff0219169083151502179055506040820151816002019080519060200190614718929190615061565b506060820151816003019080519060200190614735929190615061565b509050505050565b60036020528060005260406000206000915090508060000154908060010160009054906101000a900460ff16908060010160019054906101000a900460ff16908060010160029054906101000a900460ff1690806002018054600181600116156101000203166002900480601f0160208091040260200160405190810160405280929190818152602001828054600181600116156101000203166002900480156148285780601f106147fd57610100808354040283529160200191614828565b820191906000526020600020905b81548152906001019060200180831161480b57829003601f168201915b505050505090806003018054600181600116156101000203166002900480601f0160208091040260200160405190810160405280929190818152602001828054600181600116156101000203166002900480156148c65780601f1061489b576101008083540402835291602001916148c6565b820191906000526020600020905b8154815290600101906020018083116148a957829003601f168201915b505050505090806004018054600181600116156101000203166002900480601f0160208091040260200160405190810160405280929190818152602001828054600181600116156101000203166002900480156149645780601f1061493957610100808354040283529160200191614964565b820191906000526020600020905b81548152906001019060200180831161494757829003601f168201915b5050505050905087565b60005481565b61497c6150e1565b600160008581526020019081526020016000206040518061010001604052908160008201548152602001600182018054600181600116156101000203166002900480601f016020809104026020016040519081016040528092919081815260200182805460018160011615610100020316600290048015614a3e5780601f10614a1357610100808354040283529160200191614a3e565b820191906000526020600020905b815481529060010190602001808311614a2157829003601f168201915b50505050508152602001600282018054600181600116156101000203166002900480601f016020809104026020016040519081016040528092919081815260200182805460018160011615610100020316600290048015614ae05780601f10614ab557610100808354040283529160200191614ae0565b820191906000526020600020905b815481529060010190602001808311614ac357829003601f168201915b505050505081526020016003820160009054906101000a900473ffffffffffffffffffffffffffffffffffffffff1673ffffffffffffffffffffffffffffffffffffffff1673ffffffffffffffffffffffffffffffffffffffff168152602001600482018054600181600116156101000203166002900480601f016020809104026020016040519081016040528092919081815260200182805460018160011615610100020316600290048015614bd85780601f10614bad57610100808354040283529160200191614bd8565b820191906000526020600020905b815481529060010190602001808311614bbb57829003601f168201915b50505050508152602001600582018054600181600116156101000203166002900480601f016020809104026020016040519081016040528092919081815260200182805460018160011615610100020316600290048015614c7a5780601f10614c4f57610100808354040283529160200191614c7a565b820191906000526020600020905b815481529060010190602001808311614c5d57829003601f168201915b50505050508152602001600682018054600181600116156101000203166002900480601f016020809104026020016040519081016040528092919081815260200182805460018160011615610100020316600290048015614d1c5780601f10614cf157610100808354040283529160200191614d1c565b820191906000526020600020905b815481529060010190602001808311614cff57829003601f168201915b50505050508152602001600782018054600181600116156101000203166002900480601f016020809104026020016040519081016040528092919081815260200182805460018160011615610100020316600290048015614dbe5780601f10614d9357610100808354040283529160200191614dbe565b820191906000526020600020905b815481529060010190602001808311614da157829003601f168201915b5050505050815250509050614dd16151b5565b60046000868152602001908152602001600020604051806080016040529081600082015481526020016001820160009054906101000a900460ff16151515158152602001600282018054600181600116156101000203166002900480601f016020809104026020016040519081016040528092919081815260200182805460018160011615610100020316600290048015614ead5780601f10614e8257610100808354040283529160200191614ead565b820191906000526020600020905b815481529060010190602001808311614e9057829003601f168201915b50505050508152602001600382018054600181600116156101000203166002900480601f016020809104026020016040519081016040528092919081815260200182805460018160011615610100020316600290048015614f4f5780601f10614f2457610100808354040283529160200191614f4f565b820191906000526020600020905b815481529060010190602001808311614f3257829003601f168201915b505050505081525050905060008260600151905060008360000151118015614f7d5750600054836000015111155b614f8657600080fd5b8160200151614f9457600080fd5b3373ffffffffffffffffffffffffffffffffffffffff168173ffffffffffffffffffffffffffffffffffffffff1614614fcc57600080fd5b84826040018190525083826060018190525081600460008881526020019081526020016000206000820151816000015560208201518160010160006101000a81548160ff0219169083151502179055506040820151816002019080519060200190615038929190615061565b506060820151816003019080519060200190615055929190615061565b50905050505050505050565b828054600181600116156101000203166002900490600052602060002090601f016020900481019282601f106150a257805160ff19168380011785556150d0565b828001600101855582156150d0579182015b828111156150cf5782518255916020019190600101906150b4565b5b5090506150dd91906151df565b5090565b604051806101000160405280600081526020016060815260200160608152602001600073ffffffffffffffffffffffffffffffffffffffff168152602001606081526020016060815260200160608152602001606081525090565b6040518060e00160405280600081526020016000151581526020016000151581526020016000151581526020016060815260200160608152602001606081525090565b6040518060c001604052806000815260200160608152602001606081526020016060815260200160608152602001606081525090565b60405180608001604052806000815260200160001515815260200160608152602001606081525090565b61520191905b808211156151fd5760008160009055506001016151e5565b5090565b9056fe5265717569726520746563686e6963616c206669656c64206465736372697074696f6ea265627a7a7231582053e20d2906ba5946bb8a0d53a80a57833d6f004c23c90361ad2711877c5fdbef64736f6c63430005100032",
  "source": "pragma solidity >=0.5.0;\n\n// Smart Contract\n// Use truffle compile to compile the smart contract\n// use truffle migrate --reset comand to create a new copy of the smart contract on the blockchain\n// Use truffle test to run test\ncontract Patent {\n\n    // keep track of how many patents exist in the smart contract\n    uint public patentCount = 0;\n\n\n    // create and map to store this invention data on the blockchain, use an id as a key, and the value will be a Invention struct\n    mapping(uint => InventionDetails) public inventiondetails;\n\n    // Invention Details data structure(stores all the attributes of a Invention)\n    struct InventionDetails{\n        uint patent_id;\n        string invention_title;\n        string inventor_details;\n        address inventor;\n        string technical_field;\n        string technical_problem;\n\t\tstring technical_solution;\n        string invention_description;\n    }\n\n\n    // create and map to store this patent data on the blockchain, use an id as a key, and the value will be a Patent Details struct\n    mapping(uint => PatentDetails) public patentdetails;\n\n    // Patent Details data structure(stores all the attributes of a Patent details)\n    struct PatentDetails{\n        uint patent_id;\n        string registered_date;\n        string end_date;\n        string license_details;\n        string renewal_status;\n        string patent_status;\n    }\n\n    // create and map to store this checking patent claims data on the blockchain, use an id as a key, and the value will be a Check Patent claims struct\n    mapping(uint => checkPatentClaims) public checkpatentclaims;\n\n    // Check Patent Claims data structure(stores all the checking Patent claims)\n    struct checkPatentClaims{\n        uint patent_id;\n        bool USPTO;\n        bool JPO;\n        bool EPO;\n        string USPTO_Approval;\n        string JPO_Approval;\n        string EPO_Approval;\n    }\n\n    // create and map to store this checking patent claims data on the blockchain, use an id as a key, and the value will be a Check Patent claims struct\n    mapping(uint => transferOwnershipDetails) public transferownershipdetails;\n\n    // Check Patent Claims data structure(stores all the checking Patent claims)\n    struct transferOwnershipDetails{\n        uint patent_id;\n        bool transfer_ownership;\n        string new_owner;\n        string new_owner_details;\n    }\n\n    // Event after adding invention details\n    event addInventionDetails(\n        string invention_title,\n        string inventor_details,\n        address inventor,\n        string technical_field,\n        string technical_problem,\n\t\tstring technical_solution,\n        string invention_description\n    );\n\n    // Event after adding patent details\n    event addPatentDetails(  \n        uint patent_id,\n        string registered_date,\n        string end_date,\n        string license_details,\n        string renewal_status,\n        string patent_status\n    );\n\n    // Event after adding patent claims\n    event addCheckPatentClaims(  \n        bool USPTO,\n        bool JPO,\n        bool EPO,\n        string USPTO_Approval,\n        string JPO_Approval,\n        string EPO_Approval\n    );\n\n    // Event after adding patent claims\n    event addTransferOwnershipDetails(  \n        bool transfer_ownership,\n        string new_owner,\n        string new_owner_details\n    );\n\n    // Function for register a patent\n    function registerPatent(string memory _invention_title, string memory _inventor_details, string memory _technical_field, string memory _technical_problem, string memory _technical_solution, string memory _invention_description, string memory _registered_date, string memory _end_date, string memory _license_details, string memory _renewal_status, string memory _patent_status, bool _USPTO, bool _JPO, bool _EPO) public {\n        // Require a valid  invention title\n        require(bytes(_invention_title).length > 0, \"Require invention title\");\n        // Require a valid  inventor details\n        require(bytes(_inventor_details).length > 0, \"Require inventor details\");\n        // Require a valid  technical field description\n        require(bytes(_technical_field).length > 0, \"Require technical field description\");\n        // Require a valid  Technical Problem Details\n        require(bytes(_technical_problem).length > 0, \"Require technical problem\");\n        // Require a valid  Technical solution details\n        require(bytes(_technical_solution).length > 0, \"Require technical solution\");\n        // Require a valid  invention description details\n        require(bytes(_invention_description).length > 0, \"Require invention description\");      \n\n        // Increment product count\n        patentCount ++;\n\n        handlePatentClaims(_USPTO, _JPO, _EPO);\n\n        // Add Invention details\n        inventiondetails[patentCount] = InventionDetails(patentCount, _invention_title, _inventor_details, msg.sender, _technical_field, _technical_problem, _technical_solution, _invention_description);\n        // Add Patent details\n        patentdetails[patentCount] = PatentDetails(patentCount, _registered_date, _end_date, _license_details, _renewal_status, _patent_status);\n        // Update the patent end data and status\n        checkOwnershipTransfer(patentCount);\n\n        // Trigger an event\n        emit addInventionDetails(_invention_title, _inventor_details, msg.sender, _technical_field, _technical_problem, _technical_solution, _invention_description);\n        // Trigger an event\n        emit addPatentDetails(patentCount, _registered_date, _end_date, _license_details, _renewal_status, _patent_status);\n    }\n\n    //Function for handle patent claims\n    function handlePatentClaims(bool _USPTO, bool _JPO, bool _EPO) public {\n\n        string memory _USPTO_Status;\n        string memory _JPO_Status;\n        string memory _EPO_Status;\n\n        if(_USPTO == true){\n            _USPTO_Status = \"Pending\";\n        }\n        else{\n            _USPTO_Status = \"NULL\";\n        }\n        if(_JPO == true){\n            _JPO_Status = \"Pending\";\n        }\n        else{\n            _JPO_Status = \"NULL\";\n        }\n        if(_EPO == true){\n            _EPO_Status = \"Pending\";\n        }\n        else{\n            _EPO_Status = \"NULL\";\n        }\n\n        // Add Patent check patent claims details\n        checkpatentclaims[patentCount] = checkPatentClaims(patentCount, _USPTO, _JPO, _EPO, _USPTO_Status, _JPO_Status, _EPO_Status);\n\n        // Trigger an event\n        emit addCheckPatentClaims(_USPTO, _JPO, _EPO, _USPTO_Status, _JPO_Status, _EPO_Status);\n    }\n\n     function checkOwnershipTransfer(uint patent_id) public {\n        transferOwnershipDetails memory transferownershipdetail = transferownershipdetails[patent_id];\n        transferownershipdetails[patent_id] = transferOwnershipDetails(patent_id, transferownershipdetail.transfer_ownership, transferownershipdetail.new_owner, transferownershipdetail.new_owner_details);\n     }\n\n    function acceptPatentApplicationByUSPTO(uint patent_id) public {\n        // Fetch the Invention Details\n        InventionDetails memory inventiondetail = inventiondetails[patent_id];\n        // Fetch the Patent Details\n        checkPatentClaims memory checkpatentclaim = checkpatentclaims[patent_id];\n        // Fetch the patent owner\n        address _inventor = inventiondetail.inventor;\n        // Make sure the patent has a valid id\n        require(inventiondetail.patent_id > 0 && inventiondetail.patent_id <= patentCount);\n        // Require that the patent has not been accepted already\n        require(checkpatentclaim.USPTO);\n        // Require that the patent examiner is not the inventor\n        require(_inventor != msg.sender);\n        // Mark as approved by USPTO\n        checkpatentclaim.USPTO_Approval = \"Approved\";\n        // Update the product\n        checkpatentclaims[patent_id] = checkpatentclaim;\n        // Trigger an event\n        emit addCheckPatentClaims(checkpatentclaim.USPTO, checkpatentclaim.JPO, checkpatentclaim.EPO, checkpatentclaim.USPTO_Approval, checkpatentclaim.JPO_Approval, checkpatentclaim.EPO_Approval);\n    }\n    \n    function acceptPatentApplicationByJPO(uint patent_id, string memory _end_date) public {\n        // Fetch the Invention Details\n        InventionDetails memory inventiondetail = inventiondetails[patent_id];\n        // Fetch the Patent Details\n        PatentDetails memory patentdetail = patentdetails[patent_id];\n        // Fetch the Patent Claim Details\n        checkPatentClaims memory checkpatentclaim = checkpatentclaims[patent_id];\n        // Fetch the Patent ownership Details\n        transferOwnershipDetails memory transferownershipdetail = transferownershipdetails[patent_id];\n        // Fetch the patent owner\n        address _inventor = inventiondetail.inventor;\n        // Make sure the patent has a valid id\n        require(inventiondetail.patent_id > 0 && inventiondetail.patent_id <= patentCount);\n        // Require that the patent has not been accepted already\n        require(checkpatentclaim.JPO);\n        // Require that the patent examiner is not the inventor\n        require(_inventor != msg.sender);\n\n        // Mark as approved by JPO\n        checkpatentclaim.JPO_Approval = \"Approved\";\n        patentdetail.end_date = _end_date;\n        patentdetail.renewal_status = \"Active\";\n        patentdetail.patent_status = \"Active\";\n        transferownershipdetail.transfer_ownership = true;\n        transferownershipdetail.new_owner = \"-\";\n        transferownershipdetail.new_owner_details = \"-\";\n\n        // Update the patent claims\n        checkpatentclaims[patent_id] = checkpatentclaim;\n        // Update the patent end data and status\n        patentdetails[patent_id] = patentdetail;\n        // Update the patent end data and status\n        transferownershipdetails[patent_id] = transferownershipdetail;\n        // Trigger an event\n        emit addCheckPatentClaims(checkpatentclaim.USPTO, checkpatentclaim.JPO, checkpatentclaim.EPO, checkpatentclaim.USPTO_Approval, checkpatentclaim.JPO_Approval, checkpatentclaim.EPO_Approval);\n    }\n\n    function ownershipTransfer(uint patent_id, string memory _new_owner, string memory _new_owner_details) public {\n\n        // Fetch the Invention Details\n        InventionDetails memory inventiondetail = inventiondetails[patent_id];\n         // Fetch the Patent ownership Details\n        transferOwnershipDetails memory transferownershipdetail = transferownershipdetails[patent_id];\n\n        // Fetch the patent owner\n        address _inventor = inventiondetail.inventor;\n        // Make sure the patent has a valid id\n        require(inventiondetail.patent_id > 0 && inventiondetail.patent_id <= patentCount);\n        // Require that the patent has not been accepted already\n        require(transferownershipdetail.transfer_ownership);\n        // Require that the patent examiner is not the inventor\n        require(_inventor == msg.sender);\n\n        transferownershipdetail.new_owner = _new_owner;\n        transferownershipdetail.new_owner_details = _new_owner_details;\n\n        // Update the patent end data and status\n        transferownershipdetails[patent_id] = transferownershipdetail;\n    }\n}",
  "sourcePath": "E:\\Campuss\\4th year\\1st sem\\INTE 43216 - Research Project\\Patent-Blockchain-Project\\Blockchain-Based-Patent-Authentication-and-Management-Project\\src\\contracts\\Patent.sol",
  "compiler": {
    "name": "solc",
    "version": "0.5.16+commit.9c3226ce.Emscripten.clang"
  },
  "schemaVersion": "3.4.4",
  "updatedAt": "2022-03-20T15:07:38.122Z",
  "networkType": "ethereum",
  "devdoc": {
    "methods": {}
  },
  "userdoc": {
    "methods": {}
  }
}