{
  "contractName": "Patent",
  "abi": [
    {
      "anonymous": false,
      "inputs": [
        {
          "indexed": false,
          "internalType": "string",
          "name": "invention_title",
          "type": "string"
        },
        {
          "indexed": false,
          "internalType": "string",
          "name": "inventor_details",
          "type": "string"
        },
        {
          "indexed": false,
          "internalType": "address",
          "name": "inventor",
          "type": "address"
        },
        {
          "indexed": false,
          "internalType": "string",
          "name": "technical_field",
          "type": "string"
        },
        {
          "indexed": false,
          "internalType": "string",
          "name": "technical_problem",
          "type": "string"
        },
        {
          "indexed": false,
          "internalType": "string",
          "name": "technical_solution",
          "type": "string"
        },
        {
          "indexed": false,
          "internalType": "string",
          "name": "invention_description",
          "type": "string"
        }
      ],
      "name": "addInventionDetails",
      "type": "event"
    },
    {
      "anonymous": false,
      "inputs": [
        {
          "indexed": false,
          "internalType": "uint256",
          "name": "patent_id",
          "type": "uint256"
        },
        {
          "indexed": false,
          "internalType": "string",
          "name": "patent_claims",
          "type": "string"
        },
        {
          "indexed": false,
          "internalType": "string",
          "name": "registered_date",
          "type": "string"
        },
        {
          "indexed": false,
          "internalType": "string",
          "name": "end_date",
          "type": "string"
        },
        {
          "indexed": false,
          "internalType": "string",
          "name": "license_details",
          "type": "string"
        },
        {
          "indexed": false,
          "internalType": "string",
          "name": "renewal_status",
          "type": "string"
        },
        {
          "indexed": false,
          "internalType": "string",
          "name": "patent_status",
          "type": "string"
        }
      ],
      "name": "addPatentDetails",
      "type": "event"
    },
    {
      "constant": true,
      "inputs": [
        {
          "internalType": "uint256",
          "name": "",
          "type": "uint256"
        }
      ],
      "name": "inventiondetails",
      "outputs": [
        {
          "internalType": "uint256",
          "name": "patent_id",
          "type": "uint256"
        },
        {
          "internalType": "string",
          "name": "invention_title",
          "type": "string"
        },
        {
          "internalType": "string",
          "name": "inventor_details",
          "type": "string"
        },
        {
          "internalType": "address",
          "name": "inventor",
          "type": "address"
        },
        {
          "internalType": "string",
          "name": "technical_field",
          "type": "string"
        },
        {
          "internalType": "string",
          "name": "technical_problem",
          "type": "string"
        },
        {
          "internalType": "string",
          "name": "technical_solution",
          "type": "string"
        },
        {
          "internalType": "string",
          "name": "invention_description",
          "type": "string"
        }
      ],
      "payable": false,
      "stateMutability": "view",
      "type": "function"
    },
    {
      "constant": true,
      "inputs": [],
      "name": "patentCount",
      "outputs": [
        {
          "internalType": "uint256",
          "name": "",
          "type": "uint256"
        }
      ],
      "payable": false,
      "stateMutability": "view",
      "type": "function"
    },
    {
      "constant": true,
      "inputs": [
        {
          "internalType": "uint256",
          "name": "",
          "type": "uint256"
        }
      ],
      "name": "patentdetails",
      "outputs": [
        {
          "internalType": "uint256",
          "name": "patent_id",
          "type": "uint256"
        },
        {
          "internalType": "string",
          "name": "patent_claims",
          "type": "string"
        },
        {
          "internalType": "string",
          "name": "registered_date",
          "type": "string"
        },
        {
          "internalType": "string",
          "name": "end_date",
          "type": "string"
        },
        {
          "internalType": "string",
          "name": "license_details",
          "type": "string"
        },
        {
          "internalType": "string",
          "name": "renewal_status",
          "type": "string"
        },
        {
          "internalType": "string",
          "name": "patent_status",
          "type": "string"
        }
      ],
      "payable": false,
      "stateMutability": "view",
      "type": "function"
    },
    {
      "constant": false,
      "inputs": [
        {
          "internalType": "string",
          "name": "_invention_title",
          "type": "string"
        },
        {
          "internalType": "string",
          "name": "_inventor_details",
          "type": "string"
        },
        {
          "internalType": "string",
          "name": "_technical_field",
          "type": "string"
        },
        {
          "internalType": "string",
          "name": "_technical_problem",
          "type": "string"
        },
        {
          "internalType": "string",
          "name": "_technical_solution",
          "type": "string"
        },
        {
          "internalType": "string",
          "name": "_invention_description",
          "type": "string"
        },
        {
          "internalType": "string",
          "name": "_patent_claims",
          "type": "string"
        },
        {
          "internalType": "string",
          "name": "_registered_date",
          "type": "string"
        },
        {
          "internalType": "string",
          "name": "_end_date",
          "type": "string"
        },
        {
          "internalType": "string",
          "name": "_license_details",
          "type": "string"
        },
        {
          "internalType": "string",
          "name": "_renewal_status",
          "type": "string"
        },
        {
          "internalType": "string",
          "name": "_patent_status",
          "type": "string"
        }
      ],
      "name": "registerPatent",
      "outputs": [],
      "payable": false,
      "stateMutability": "nonpayable",
      "type": "function"
    }
  ],
  "bytecode": "0x60806040526000805534801561001457600080fd5b506121b0806100246000396000f3fe608060405234801561001057600080fd5b506004361061004c5760003560e01c80633a9f6df3146100515780634ac41e131461034e578063b084c84114610618578063bc3d6b5914610636575b600080fd5b61007d6004803603602081101561006757600080fd5b8101908080359060200190929190505050610d6f565b6040518089815260200180602001806020018873ffffffffffffffffffffffffffffffffffffffff1673ffffffffffffffffffffffffffffffffffffffff1681526020018060200180602001806020018060200187810387528e818151815260200191508051906020019080838360005b838110156101095780820151818401526020810190506100ee565b50505050905090810190601f1680156101365780820380516001836020036101000a031916815260200191505b5087810386528d818151815260200191508051906020019080838360005b8381101561016f578082015181840152602081019050610154565b50505050905090810190601f16801561019c5780820380516001836020036101000a031916815260200191505b5087810385528b818151815260200191508051906020019080838360005b838110156101d55780820151818401526020810190506101ba565b50505050905090810190601f1680156102025780820380516001836020036101000a031916815260200191505b5087810384528a818151815260200191508051906020019080838360005b8381101561023b578082015181840152602081019050610220565b50505050905090810190601f1680156102685780820380516001836020036101000a031916815260200191505b50878103835289818151815260200191508051906020019080838360005b838110156102a1578082015181840152602081019050610286565b50505050905090810190601f1680156102ce5780820380516001836020036101000a031916815260200191505b50878103825288818151815260200191508051906020019080838360005b838110156103075780820151818401526020810190506102ec565b50505050905090810190601f1680156103345780820380516001836020036101000a031916815260200191505b509e50505050505050505050505050505060405180910390f35b61037a6004803603602081101561036457600080fd5b8101908080359060200190929190505050611167565b6040518088815260200180602001806020018060200180602001806020018060200187810387528d818151815260200191508051906020019080838360005b838110156103d45780820151818401526020810190506103b9565b50505050905090810190601f1680156104015780820380516001836020036101000a031916815260200191505b5087810386528c818151815260200191508051906020019080838360005b8381101561043a57808201518184015260208101905061041f565b50505050905090810190601f1680156104675780820380516001836020036101000a031916815260200191505b5087810385528b818151815260200191508051906020019080838360005b838110156104a0578082015181840152602081019050610485565b50505050905090810190601f1680156104cd5780820380516001836020036101000a031916815260200191505b5087810384528a818151815260200191508051906020019080838360005b838110156105065780820151818401526020810190506104eb565b50505050905090810190601f1680156105335780820380516001836020036101000a031916815260200191505b50878103835289818151815260200191508051906020019080838360005b8381101561056c578082015181840152602081019050610551565b50505050905090810190601f1680156105995780820380516001836020036101000a031916815260200191505b50878103825288818151815260200191508051906020019080838360005b838110156105d25780820151818401526020810190506105b7565b50505050905090810190601f1680156105ff5780820380516001836020036101000a031916815260200191505b509d505050505050505050505050505060405180910390f35b610620611539565b6040518082815260200191505060405180910390f35b610d6d600480360361018081101561064d57600080fd5b810190808035906020019064010000000081111561066a57600080fd5b82018360208201111561067c57600080fd5b8035906020019184600183028401116401000000008311171561069e57600080fd5b91908080601f016020809104026020016040519081016040528093929190818152602001838380828437600081840152601f19601f8201169050808301925050505050505091929192908035906020019064010000000081111561070157600080fd5b82018360208201111561071357600080fd5b8035906020019184600183028401116401000000008311171561073557600080fd5b91908080601f016020809104026020016040519081016040528093929190818152602001838380828437600081840152601f19601f8201169050808301925050505050505091929192908035906020019064010000000081111561079857600080fd5b8201836020820111156107aa57600080fd5b803590602001918460018302840111640100000000831117156107cc57600080fd5b91908080601f016020809104026020016040519081016040528093929190818152602001838380828437600081840152601f19601f8201169050808301925050505050505091929192908035906020019064010000000081111561082f57600080fd5b82018360208201111561084157600080fd5b8035906020019184600183028401116401000000008311171561086357600080fd5b91908080601f016020809104026020016040519081016040528093929190818152602001838380828437600081840152601f19601f820116905080830192505050505050509192919290803590602001906401000000008111156108c657600080fd5b8201836020820111156108d857600080fd5b803590602001918460018302840111640100000000831117156108fa57600080fd5b91908080601f016020809104026020016040519081016040528093929190818152602001838380828437600081840152601f19601f8201169050808301925050505050505091929192908035906020019064010000000081111561095d57600080fd5b82018360208201111561096f57600080fd5b8035906020019184600183028401116401000000008311171561099157600080fd5b91908080601f016020809104026020016040519081016040528093929190818152602001838380828437600081840152601f19601f820116905080830192505050505050509192919290803590602001906401000000008111156109f457600080fd5b820183602082011115610a0657600080fd5b80359060200191846001830284011164010000000083111715610a2857600080fd5b91908080601f016020809104026020016040519081016040528093929190818152602001838380828437600081840152601f19601f82011690508083019250505050505050919291929080359060200190640100000000811115610a8b57600080fd5b820183602082011115610a9d57600080fd5b80359060200191846001830284011164010000000083111715610abf57600080fd5b91908080601f016020809104026020016040519081016040528093929190818152602001838380828437600081840152601f19601f82011690508083019250505050505050919291929080359060200190640100000000811115610b2257600080fd5b820183602082011115610b3457600080fd5b80359060200191846001830284011164010000000083111715610b5657600080fd5b91908080601f016020809104026020016040519081016040528093929190818152602001838380828437600081840152601f19601f82011690508083019250505050505050919291929080359060200190640100000000811115610bb957600080fd5b820183602082011115610bcb57600080fd5b80359060200191846001830284011164010000000083111715610bed57600080fd5b91908080601f016020809104026020016040519081016040528093929190818152602001838380828437600081840152601f19601f82011690508083019250505050505050919291929080359060200190640100000000811115610c5057600080fd5b820183602082011115610c6257600080fd5b80359060200191846001830284011164010000000083111715610c8457600080fd5b91908080601f016020809104026020016040519081016040528093929190818152602001838380828437600081840152601f19601f82011690508083019250505050505050919291929080359060200190640100000000811115610ce757600080fd5b820183602082011115610cf957600080fd5b80359060200191846001830284011164010000000083111715610d1b57600080fd5b91908080601f016020809104026020016040519081016040528093929190818152602001838380828437600081840152601f19601f82011690508083019250505050505050919291929050505061153f565b005b6001602052806000526040600020600091509050806000015490806001018054600181600116156101000203166002900480601f016020809104026020016040519081016040528092919081815260200182805460018160011615610100020316600290048015610e215780601f10610df657610100808354040283529160200191610e21565b820191906000526020600020905b815481529060010190602001808311610e0457829003601f168201915b505050505090806002018054600181600116156101000203166002900480601f016020809104026020016040519081016040528092919081815260200182805460018160011615610100020316600290048015610ebf5780601f10610e9457610100808354040283529160200191610ebf565b820191906000526020600020905b815481529060010190602001808311610ea257829003601f168201915b5050505050908060030160009054906101000a900473ffffffffffffffffffffffffffffffffffffffff1690806004018054600181600116156101000203166002900480601f016020809104026020016040519081016040528092919081815260200182805460018160011615610100020316600290048015610f835780601f10610f5857610100808354040283529160200191610f83565b820191906000526020600020905b815481529060010190602001808311610f6657829003601f168201915b505050505090806005018054600181600116156101000203166002900480601f0160208091040260200160405190810160405280929190818152602001828054600181600116156101000203166002900480156110215780601f10610ff657610100808354040283529160200191611021565b820191906000526020600020905b81548152906001019060200180831161100457829003601f168201915b505050505090806006018054600181600116156101000203166002900480601f0160208091040260200160405190810160405280929190818152602001828054600181600116156101000203166002900480156110bf5780601f10611094576101008083540402835291602001916110bf565b820191906000526020600020905b8154815290600101906020018083116110a257829003601f168201915b505050505090806007018054600181600116156101000203166002900480601f01602080910402602001604051908101604052809291908181526020018280546001816001161561010002031660029004801561115d5780601f106111325761010080835404028352916020019161115d565b820191906000526020600020905b81548152906001019060200180831161114057829003601f168201915b5050505050905088565b6002602052806000526040600020600091509050806000015490806001018054600181600116156101000203166002900480601f0160208091040260200160405190810160405280929190818152602001828054600181600116156101000203166002900480156112195780601f106111ee57610100808354040283529160200191611219565b820191906000526020600020905b8154815290600101906020018083116111fc57829003601f168201915b505050505090806002018054600181600116156101000203166002900480601f0160208091040260200160405190810160405280929190818152602001828054600181600116156101000203166002900480156112b75780601f1061128c576101008083540402835291602001916112b7565b820191906000526020600020905b81548152906001019060200180831161129a57829003601f168201915b505050505090806003018054600181600116156101000203166002900480601f0160208091040260200160405190810160405280929190818152602001828054600181600116156101000203166002900480156113555780601f1061132a57610100808354040283529160200191611355565b820191906000526020600020905b81548152906001019060200180831161133857829003601f168201915b505050505090806004018054600181600116156101000203166002900480601f0160208091040260200160405190810160405280929190818152602001828054600181600116156101000203166002900480156113f35780601f106113c8576101008083540402835291602001916113f3565b820191906000526020600020905b8154815290600101906020018083116113d657829003601f168201915b505050505090806005018054600181600116156101000203166002900480601f0160208091040260200160405190810160405280929190818152602001828054600181600116156101000203166002900480156114915780601f1061146657610100808354040283529160200191611491565b820191906000526020600020905b81548152906001019060200180831161147457829003601f168201915b505050505090806006018054600181600116156101000203166002900480601f01602080910402602001604051908101604052809291908181526020018280546001816001161561010002031660029004801561152f5780601f106115045761010080835404028352916020019161152f565b820191906000526020600020905b81548152906001019060200180831161151257829003601f168201915b5050505050905087565b60005481565b60008c51116115b6576040517f08c379a00000000000000000000000000000000000000000000000000000000081526004018080602001828103825260208152602001807f5265717569726520612076616c69642020696e76656e74696f6e207469746c6581525060200191505060405180910390fd5b60008b5111611610576040517f08c379a000000000000000000000000000000000000000000000000000000000815260040180806020018281038252602181526020018061212f6021913960400191505060405180910390fd5b60008a511161166a576040517f08c379a000000000000000000000000000000000000000000000000000000000815260040180806020018281038252602c815260200180612150602c913960400191505060405180910390fd5b60008951116116e1576040517f08c379a000000000000000000000000000000000000000000000000000000000815260040180806020018281038252601e8152602001807f5265717569726520612076616c69642020706174656e7420636c61696d73000081525060200191505060405180910390fd5b6000885111611758576040517f08c379a000000000000000000000000000000000000000000000000000000000815260040180806020018281038252601e8152602001807f5265717569726520612076616c69642020706174656e7420636c61696d73000081525060200191505060405180910390fd5b60008751116117cf576040517f08c379a000000000000000000000000000000000000000000000000000000000815260040180806020018281038252601e8152602001807f5265717569726520612076616c69642020706174656e7420636c61696d73000081525060200191505060405180910390fd5b6000865111611846576040517f08c379a000000000000000000000000000000000000000000000000000000000815260040180806020018281038252601e8152602001807f5265717569726520612076616c69642020706174656e7420636c61696d73000081525060200191505060405180910390fd5b600080815480929190600101919050555060405180610100016040528060005481526020018d81526020018c81526020013373ffffffffffffffffffffffffffffffffffffffff1681526020018b81526020018a81526020018981526020018881525060016000805481526020019081526020016000206000820151816000015560208201518160010190805190602001906118e3929190612089565b506040820151816002019080519060200190611900929190612089565b5060608201518160030160006101000a81548173ffffffffffffffffffffffffffffffffffffffff021916908373ffffffffffffffffffffffffffffffffffffffff1602179055506080820151816004019080519060200190611964929190612089565b5060a0820151816005019080519060200190611981929190612089565b5060c082015181600601908051906020019061199e929190612089565b5060e08201518160070190805190602001906119bb929190612089565b509050506040518060e001604052806000548152602001878152602001868152602001858152602001848152602001838152602001828152506002600080548152602001908152602001600020600082015181600001556020820151816001019080519060200190611a2e929190612089565b506040820151816002019080519060200190611a4b929190612089565b506060820151816003019080519060200190611a68929190612089565b506080820151816004019080519060200190611a85929190612089565b5060a0820151816005019080519060200190611aa2929190612089565b5060c0820151816006019080519060200190611abf929190612089565b509050507f6fcae015bd932120bda37eab1da790873390815c02c1521af40ad19580f66b328c8c338d8d8d8d6040518080602001806020018873ffffffffffffffffffffffffffffffffffffffff1673ffffffffffffffffffffffffffffffffffffffff1681526020018060200180602001806020018060200187810387528e818151815260200191508051906020019080838360005b83811015611b71578082015181840152602081019050611b56565b50505050905090810190601f168015611b9e5780820380516001836020036101000a031916815260200191505b5087810386528d818151815260200191508051906020019080838360005b83811015611bd7578082015181840152602081019050611bbc565b50505050905090810190601f168015611c045780820380516001836020036101000a031916815260200191505b5087810385528b818151815260200191508051906020019080838360005b83811015611c3d578082015181840152602081019050611c22565b50505050905090810190601f168015611c6a5780820380516001836020036101000a031916815260200191505b5087810384528a818151815260200191508051906020019080838360005b83811015611ca3578082015181840152602081019050611c88565b50505050905090810190601f168015611cd05780820380516001836020036101000a031916815260200191505b50878103835289818151815260200191508051906020019080838360005b83811015611d09578082015181840152602081019050611cee565b50505050905090810190601f168015611d365780820380516001836020036101000a031916815260200191505b50878103825288818151815260200191508051906020019080838360005b83811015611d6f578082015181840152602081019050611d54565b50505050905090810190601f168015611d9c5780820380516001836020036101000a031916815260200191505b509d505050505050505050505050505060405180910390a17faf4cc6605f7beaa3ef8c674335781428844fa958a665debfbff697f9492fd9cc6000548787878787876040518088815260200180602001806020018060200180602001806020018060200187810387528d818151815260200191508051906020019080838360005b83811015611e38578082015181840152602081019050611e1d565b50505050905090810190601f168015611e655780820380516001836020036101000a031916815260200191505b5087810386528c818151815260200191508051906020019080838360005b83811015611e9e578082015181840152602081019050611e83565b50505050905090810190601f168015611ecb5780820380516001836020036101000a031916815260200191505b5087810385528b818151815260200191508051906020019080838360005b83811015611f04578082015181840152602081019050611ee9565b50505050905090810190601f168015611f315780820380516001836020036101000a031916815260200191505b5087810384528a818151815260200191508051906020019080838360005b83811015611f6a578082015181840152602081019050611f4f565b50505050905090810190601f168015611f975780820380516001836020036101000a031916815260200191505b50878103835289818151815260200191508051906020019080838360005b83811015611fd0578082015181840152602081019050611fb5565b50505050905090810190601f168015611ffd5780820380516001836020036101000a031916815260200191505b50878103825288818151815260200191508051906020019080838360005b8381101561203657808201518184015260208101905061201b565b50505050905090810190601f1680156120635780820380516001836020036101000a031916815260200191505b509d505050505050505050505050505060405180910390a1505050505050505050505050565b828054600181600116156101000203166002900490600052602060002090601f016020900481019282601f106120ca57805160ff19168380011785556120f8565b828001600101855582156120f8579182015b828111156120f75782518255916020019190600101906120dc565b5b5090506121059190612109565b5090565b61212b91905b8082111561212757600081600090555060010161210f565b5090565b9056fe5265717569726520612076616c69642020696e76656e746f722064657461696c735265717569726520612076616c69642020746563686e6963616c206669656c64206465736372697074696f6ea265627a7a72315820c6bd40eaae2054819822bc436307e65b9fdff20102da352f704b9c3b98682c8864736f6c63430005100032",
  "source": "pragma solidity >=0.5.0;\n\n// Smart Contract\n// Use truffle compile to compile the smart contract\n// use truffle migrate --reset comand to create a new copy of the smart contract on the blockchain\n// Use truffle test to run test\ncontract Patent {\n\n    // keep track of how many patents exist in the smart contract\n    uint public patentCount = 0;\n\n    // Invention Details data structure(stores all the attributes of a Invention)\n    struct InventionDetails{\n        uint patent_id;\n        string invention_title;\n        string inventor_details;\n        address inventor;\n        string technical_field;\n        string technical_problem;\n\t\tstring technical_solution;\n        string invention_description;\n    }\n\n    // create and map to store this invention data on the blockchain, use an id as a key, and the value will be a Invention struct\n    mapping(uint => InventionDetails) public inventiondetails;\n\n    struct PatentDetails{\n        uint patent_id;\n        string patent_claims;\n        string registered_date;\n        string end_date;\n        string license_details;\n        string renewal_status;\n        string patent_status;\n    }\n\n    // create and map to store this patent data on the blockchain, use an id as a key, and the value will be a Patent struct\n    mapping(uint => PatentDetails) public patentdetails;\n\n     // Event after adding invention details\n    event addInventionDetails(\n        string invention_title,\n        string inventor_details,\n        address inventor,\n        string technical_field,\n        string technical_problem,\n\t\tstring technical_solution,\n        string invention_description\n    );\n\n     // Event after adding patent details\n    event addPatentDetails(  \n        uint patent_id,\n        string patent_claims,\n        string registered_date,\n        string end_date,\n        string license_details,\n        string renewal_status,\n        string patent_status\n    );\n\n    // Function for register a patent\n    function registerPatent(string memory _invention_title, string memory _inventor_details, string memory _technical_field, string memory _technical_problem, string memory _technical_solution, string memory _invention_description, string memory _patent_claims, string memory _registered_date, string memory _end_date, string memory _license_details, string memory _renewal_status, string memory _patent_status) public {\n        // Require a valid  invention title\n        require(bytes(_invention_title).length > 0, \"Require a valid  invention title\");\n        // Require a valid  inventor details\n        require(bytes(_inventor_details).length > 0, \"Require a valid  inventor details\");\n        // Require a valid  technical field description\n        require(bytes(_technical_field).length > 0, \"Require a valid  technical field description\");\n        // Require a valid  Technical Problem Details\n        require(bytes(_technical_problem).length > 0, \"Require a valid  patent claims\");\n        // Require a valid  Technical solution details\n        require(bytes(_technical_solution).length > 0, \"Require a valid  patent claims\");\n        // Require a valid  invention description details\n        require(bytes(_invention_description).length > 0, \"Require a valid  patent claims\");\n        // Require patent claims\n        require(bytes(_patent_claims).length > 0, \"Require a valid  patent claims\");\n        // Increment product count\n        patentCount ++;\n        // Add Invention details\n        inventiondetails[patentCount] = InventionDetails(patentCount, _invention_title, _inventor_details, msg.sender, _technical_field, _technical_problem, _technical_solution, _invention_description);\n        // Add Patent details\n        patentdetails[patentCount] = PatentDetails(patentCount, _patent_claims, _registered_date, _end_date, _license_details, _renewal_status, _patent_status);\n        // Trigger an event\n        emit addInventionDetails(_invention_title, _inventor_details, msg.sender, _technical_field, _technical_problem, _technical_solution, _invention_description);\n        // Trigger an event\n        emit addPatentDetails(patentCount, _patent_claims, _registered_date, _end_date, _license_details, _renewal_status, _patent_status);\n    }\n\n}",
  "sourcePath": "E:\\Campuss\\4th year\\1st sem\\INTE 43216 - Research Project\\Patent-Blockchain-Project\\Blockchain-Based-Patent-Authentication-and-Management-Project\\src\\contracts\\Patent.sol",
  "compiler": {
    "name": "solc",
    "version": "0.5.16+commit.9c3226ce.Emscripten.clang"
  },
  "schemaVersion": "3.4.4",
  "updatedAt": "2022-01-30T17:40:25.826Z",
  "networkType": "ethereum",
  "devdoc": {
    "methods": {}
  },
  "userdoc": {
    "methods": {}
  }
}