{
  "contractName": "Patent",
  "abi": [
    {
      "anonymous": false,
      "inputs": [
        {
          "indexed": false,
          "internalType": "string",
          "name": "invention_title",
          "type": "string"
        },
        {
          "indexed": false,
          "internalType": "string",
          "name": "inventor_details",
          "type": "string"
        },
        {
          "indexed": false,
          "internalType": "address",
          "name": "inventor",
          "type": "address"
        },
        {
          "indexed": false,
          "internalType": "string",
          "name": "technical_field",
          "type": "string"
        },
        {
          "indexed": false,
          "internalType": "string",
          "name": "technical_problem",
          "type": "string"
        },
        {
          "indexed": false,
          "internalType": "string",
          "name": "technical_solution",
          "type": "string"
        },
        {
          "indexed": false,
          "internalType": "string",
          "name": "invention_description",
          "type": "string"
        }
      ],
      "name": "addInventionDetails",
      "type": "event"
    },
    {
      "anonymous": false,
      "inputs": [
        {
          "indexed": false,
          "internalType": "uint256",
          "name": "patent_id",
          "type": "uint256"
        },
        {
          "indexed": false,
          "internalType": "string",
          "name": "patent_claims",
          "type": "string"
        },
        {
          "indexed": false,
          "internalType": "string",
          "name": "registereddate",
          "type": "string"
        },
        {
          "indexed": false,
          "internalType": "string",
          "name": "expdate",
          "type": "string"
        },
        {
          "indexed": false,
          "internalType": "bool",
          "name": "renewal_status",
          "type": "bool"
        },
        {
          "indexed": false,
          "internalType": "bool",
          "name": "patent_status",
          "type": "bool"
        }
      ],
      "name": "addPatentDetails",
      "type": "event"
    },
    {
      "constant": true,
      "inputs": [
        {
          "internalType": "uint256",
          "name": "",
          "type": "uint256"
        }
      ],
      "name": "inventiondetails",
      "outputs": [
        {
          "internalType": "uint256",
          "name": "patent_id",
          "type": "uint256"
        },
        {
          "internalType": "string",
          "name": "invention_title",
          "type": "string"
        },
        {
          "internalType": "string",
          "name": "inventor_details",
          "type": "string"
        },
        {
          "internalType": "address",
          "name": "inventor",
          "type": "address"
        },
        {
          "internalType": "string",
          "name": "technical_field",
          "type": "string"
        },
        {
          "internalType": "string",
          "name": "technical_problem",
          "type": "string"
        },
        {
          "internalType": "string",
          "name": "technical_solution",
          "type": "string"
        },
        {
          "internalType": "string",
          "name": "invention_description",
          "type": "string"
        }
      ],
      "payable": false,
      "stateMutability": "view",
      "type": "function"
    },
    {
      "constant": true,
      "inputs": [],
      "name": "patentCount",
      "outputs": [
        {
          "internalType": "uint256",
          "name": "",
          "type": "uint256"
        }
      ],
      "payable": false,
      "stateMutability": "view",
      "type": "function"
    },
    {
      "constant": true,
      "inputs": [
        {
          "internalType": "uint256",
          "name": "",
          "type": "uint256"
        }
      ],
      "name": "patentdetails",
      "outputs": [
        {
          "internalType": "uint256",
          "name": "patent_id",
          "type": "uint256"
        },
        {
          "internalType": "string",
          "name": "patent_claims",
          "type": "string"
        },
        {
          "internalType": "string",
          "name": "registereddate",
          "type": "string"
        },
        {
          "internalType": "string",
          "name": "expdate",
          "type": "string"
        },
        {
          "internalType": "bool",
          "name": "renewal_status",
          "type": "bool"
        },
        {
          "internalType": "bool",
          "name": "patent_status",
          "type": "bool"
        }
      ],
      "payable": false,
      "stateMutability": "view",
      "type": "function"
    },
    {
      "constant": false,
      "inputs": [
        {
          "internalType": "string",
          "name": "_invention_title",
          "type": "string"
        },
        {
          "internalType": "string",
          "name": "_inventor_details",
          "type": "string"
        },
        {
          "internalType": "string",
          "name": "_technical_field",
          "type": "string"
        },
        {
          "internalType": "string",
          "name": "_technical_problem",
          "type": "string"
        },
        {
          "internalType": "string",
          "name": "_technical_solution",
          "type": "string"
        },
        {
          "internalType": "string",
          "name": "_invention_description",
          "type": "string"
        },
        {
          "internalType": "string",
          "name": "_patent_claims",
          "type": "string"
        },
        {
          "internalType": "string",
          "name": "_registereddate",
          "type": "string"
        },
        {
          "internalType": "string",
          "name": "_expdate",
          "type": "string"
        }
      ],
      "name": "registerPatent",
      "outputs": [],
      "payable": false,
      "stateMutability": "nonpayable",
      "type": "function"
    }
  ],
  "bytecode": "0x60806040526000805534801561001457600080fd5b50611a5c806100246000396000f3fe608060405234801561001057600080fd5b506004361061004c5760003560e01c80633a9f6df3146100515780634ac41e131461034e578063b084c841146104ea578063c9a434b014610508575b600080fd5b61007d6004803603602081101561006757600080fd5b8101908080359060200190929190505050610a7c565b6040518089815260200180602001806020018873ffffffffffffffffffffffffffffffffffffffff1673ffffffffffffffffffffffffffffffffffffffff1681526020018060200180602001806020018060200187810387528e818151815260200191508051906020019080838360005b838110156101095780820151818401526020810190506100ee565b50505050905090810190601f1680156101365780820380516001836020036101000a031916815260200191505b5087810386528d818151815260200191508051906020019080838360005b8381101561016f578082015181840152602081019050610154565b50505050905090810190601f16801561019c5780820380516001836020036101000a031916815260200191505b5087810385528b818151815260200191508051906020019080838360005b838110156101d55780820151818401526020810190506101ba565b50505050905090810190601f1680156102025780820380516001836020036101000a031916815260200191505b5087810384528a818151815260200191508051906020019080838360005b8381101561023b578082015181840152602081019050610220565b50505050905090810190601f1680156102685780820380516001836020036101000a031916815260200191505b50878103835289818151815260200191508051906020019080838360005b838110156102a1578082015181840152602081019050610286565b50505050905090810190601f1680156102ce5780820380516001836020036101000a031916815260200191505b50878103825288818151815260200191508051906020019080838360005b838110156103075780820151818401526020810190506102ec565b50505050905090810190601f1680156103345780820380516001836020036101000a031916815260200191505b509e50505050505050505050505050505060405180910390f35b61037a6004803603602081101561036457600080fd5b8101908080359060200190929190505050610e74565b604051808781526020018060200180602001806020018615151515815260200185151515158152602001848103845289818151815260200191508051906020019080838360005b838110156103dc5780820151818401526020810190506103c1565b50505050905090810190601f1680156104095780820380516001836020036101000a031916815260200191505b50848103835288818151815260200191508051906020019080838360005b83811015610442578082015181840152602081019050610427565b50505050905090810190601f16801561046f5780820380516001836020036101000a031916815260200191505b50848103825287818151815260200191508051906020019080838360005b838110156104a857808201518184015260208101905061048d565b50505050905090810190601f1680156104d55780820380516001836020036101000a031916815260200191505b50995050505050505050505060405180910390f35b6104f2611092565b6040518082815260200191505060405180910390f35b610a7a600480360361012081101561051f57600080fd5b810190808035906020019064010000000081111561053c57600080fd5b82018360208201111561054e57600080fd5b8035906020019184600183028401116401000000008311171561057057600080fd5b91908080601f016020809104026020016040519081016040528093929190818152602001838380828437600081840152601f19601f820116905080830192505050505050509192919290803590602001906401000000008111156105d357600080fd5b8201836020820111156105e557600080fd5b8035906020019184600183028401116401000000008311171561060757600080fd5b91908080601f016020809104026020016040519081016040528093929190818152602001838380828437600081840152601f19601f8201169050808301925050505050505091929192908035906020019064010000000081111561066a57600080fd5b82018360208201111561067c57600080fd5b8035906020019184600183028401116401000000008311171561069e57600080fd5b91908080601f016020809104026020016040519081016040528093929190818152602001838380828437600081840152601f19601f8201169050808301925050505050505091929192908035906020019064010000000081111561070157600080fd5b82018360208201111561071357600080fd5b8035906020019184600183028401116401000000008311171561073557600080fd5b91908080601f016020809104026020016040519081016040528093929190818152602001838380828437600081840152601f19601f8201169050808301925050505050505091929192908035906020019064010000000081111561079857600080fd5b8201836020820111156107aa57600080fd5b803590602001918460018302840111640100000000831117156107cc57600080fd5b91908080601f016020809104026020016040519081016040528093929190818152602001838380828437600081840152601f19601f8201169050808301925050505050505091929192908035906020019064010000000081111561082f57600080fd5b82018360208201111561084157600080fd5b8035906020019184600183028401116401000000008311171561086357600080fd5b91908080601f016020809104026020016040519081016040528093929190818152602001838380828437600081840152601f19601f820116905080830192505050505050509192919290803590602001906401000000008111156108c657600080fd5b8201836020820111156108d857600080fd5b803590602001918460018302840111640100000000831117156108fa57600080fd5b91908080601f016020809104026020016040519081016040528093929190818152602001838380828437600081840152601f19601f8201169050808301925050505050505091929192908035906020019064010000000081111561095d57600080fd5b82018360208201111561096f57600080fd5b8035906020019184600183028401116401000000008311171561099157600080fd5b91908080601f016020809104026020016040519081016040528093929190818152602001838380828437600081840152601f19601f820116905080830192505050505050509192919290803590602001906401000000008111156109f457600080fd5b820183602082011115610a0657600080fd5b80359060200191846001830284011164010000000083111715610a2857600080fd5b91908080601f016020809104026020016040519081016040528093929190818152602001838380828437600081840152601f19601f820116905080830192505050505050509192919290505050611098565b005b6001602052806000526040600020600091509050806000015490806001018054600181600116156101000203166002900480601f016020809104026020016040519081016040528092919081815260200182805460018160011615610100020316600290048015610b2e5780601f10610b0357610100808354040283529160200191610b2e565b820191906000526020600020905b815481529060010190602001808311610b1157829003601f168201915b505050505090806002018054600181600116156101000203166002900480601f016020809104026020016040519081016040528092919081815260200182805460018160011615610100020316600290048015610bcc5780601f10610ba157610100808354040283529160200191610bcc565b820191906000526020600020905b815481529060010190602001808311610baf57829003601f168201915b5050505050908060030160009054906101000a900473ffffffffffffffffffffffffffffffffffffffff1690806004018054600181600116156101000203166002900480601f016020809104026020016040519081016040528092919081815260200182805460018160011615610100020316600290048015610c905780601f10610c6557610100808354040283529160200191610c90565b820191906000526020600020905b815481529060010190602001808311610c7357829003601f168201915b505050505090806005018054600181600116156101000203166002900480601f016020809104026020016040519081016040528092919081815260200182805460018160011615610100020316600290048015610d2e5780601f10610d0357610100808354040283529160200191610d2e565b820191906000526020600020905b815481529060010190602001808311610d1157829003601f168201915b505050505090806006018054600181600116156101000203166002900480601f016020809104026020016040519081016040528092919081815260200182805460018160011615610100020316600290048015610dcc5780601f10610da157610100808354040283529160200191610dcc565b820191906000526020600020905b815481529060010190602001808311610daf57829003601f168201915b505050505090806007018054600181600116156101000203166002900480601f016020809104026020016040519081016040528092919081815260200182805460018160011615610100020316600290048015610e6a5780601f10610e3f57610100808354040283529160200191610e6a565b820191906000526020600020905b815481529060010190602001808311610e4d57829003601f168201915b5050505050905088565b6002602052806000526040600020600091509050806000015490806001018054600181600116156101000203166002900480601f016020809104026020016040519081016040528092919081815260200182805460018160011615610100020316600290048015610f265780601f10610efb57610100808354040283529160200191610f26565b820191906000526020600020905b815481529060010190602001808311610f0957829003601f168201915b505050505090806002018054600181600116156101000203166002900480601f016020809104026020016040519081016040528092919081815260200182805460018160011615610100020316600290048015610fc45780601f10610f9957610100808354040283529160200191610fc4565b820191906000526020600020905b815481529060010190602001808311610fa757829003601f168201915b505050505090806003018054600181600116156101000203166002900480601f0160208091040260200160405190810160405280929190818152602001828054600181600116156101000203166002900480156110625780601f1061103757610100808354040283529160200191611062565b820191906000526020600020905b81548152906001019060200180831161104557829003601f168201915b5050505050908060040160009054906101000a900460ff16908060040160019054906101000a900460ff16905086565b60005481565b600089511161110f576040517f08c379a00000000000000000000000000000000000000000000000000000000081526004018080602001828103825260208152602001807f5265717569726520612076616c69642020696e76656e74696f6e207469746c6581525060200191505060405180910390fd5b6000885111611169576040517f08c379a00000000000000000000000000000000000000000000000000000000081526004018080602001828103825260218152602001806119db6021913960400191505060405180910390fd5b60008451116111c3576040517f08c379a000000000000000000000000000000000000000000000000000000000815260040180806020018281038252602c8152602001806119fc602c913960400191505060405180910390fd5b600083511161123a576040517f08c379a000000000000000000000000000000000000000000000000000000000815260040180806020018281038252601e8152602001807f5265717569726520612076616c69642020706174656e7420636c61696d73000081525060200191505060405180910390fd5b600080815480929190600101919050555060405180610100016040528060005481526020018a81526020018981526020013373ffffffffffffffffffffffffffffffffffffffff1681526020018881526020018781526020018681526020018581525060016000805481526020019081526020016000206000820151816000015560208201518160010190805190602001906112d7929190611935565b5060408201518160020190805190602001906112f4929190611935565b5060608201518160030160006101000a81548173ffffffffffffffffffffffffffffffffffffffff021916908373ffffffffffffffffffffffffffffffffffffffff1602179055506080820151816004019080519060200190611358929190611935565b5060a0820151816005019080519060200190611375929190611935565b5060c0820151816006019080519060200190611392929190611935565b5060e08201518160070190805190602001906113af929190611935565b509050506040518060c001604052806000548152602001848152602001838152602001828152602001600015158152602001600015158152506002600080548152602001908152602001600020600082015181600001556020820151816001019080519060200190611422929190611935565b50604082015181600201908051906020019061143f929190611935565b50606082015181600301908051906020019061145c929190611935565b5060808201518160040160006101000a81548160ff02191690831515021790555060a08201518160040160016101000a81548160ff0219169083151502179055509050507f6fcae015bd932120bda37eab1da790873390815c02c1521af40ad19580f66b328989338a8a8a8a6040518080602001806020018873ffffffffffffffffffffffffffffffffffffffff1673ffffffffffffffffffffffffffffffffffffffff1681526020018060200180602001806020018060200187810387528e818151815260200191508051906020019080838360005b8381101561154e578082015181840152602081019050611533565b50505050905090810190601f16801561157b5780820380516001836020036101000a031916815260200191505b5087810386528d818151815260200191508051906020019080838360005b838110156115b4578082015181840152602081019050611599565b50505050905090810190601f1680156115e15780820380516001836020036101000a031916815260200191505b5087810385528b818151815260200191508051906020019080838360005b8381101561161a5780820151818401526020810190506115ff565b50505050905090810190601f1680156116475780820380516001836020036101000a031916815260200191505b5087810384528a818151815260200191508051906020019080838360005b83811015611680578082015181840152602081019050611665565b50505050905090810190601f1680156116ad5780820380516001836020036101000a031916815260200191505b50878103835289818151815260200191508051906020019080838360005b838110156116e65780820151818401526020810190506116cb565b50505050905090810190601f1680156117135780820380516001836020036101000a031916815260200191505b50878103825288818151815260200191508051906020019080838360005b8381101561174c578082015181840152602081019050611731565b50505050905090810190601f1680156117795780820380516001836020036101000a031916815260200191505b509d505050505050505050505050505060405180910390a17fe6537f921fcc53dc365a4ae9680bc48dd5236c4ed14e562f1d08a0e8a4128ef5600054848484600080604051808781526020018060200180602001806020018615151515815260200185151515158152602001848103845289818151815260200191508051906020019080838360005b8381101561181d578082015181840152602081019050611802565b50505050905090810190601f16801561184a5780820380516001836020036101000a031916815260200191505b50848103835288818151815260200191508051906020019080838360005b83811015611883578082015181840152602081019050611868565b50505050905090810190601f1680156118b05780820380516001836020036101000a031916815260200191505b50848103825287818151815260200191508051906020019080838360005b838110156118e95780820151818401526020810190506118ce565b50505050905090810190601f1680156119165780820380516001836020036101000a031916815260200191505b50995050505050505050505060405180910390a1505050505050505050565b828054600181600116156101000203166002900490600052602060002090601f016020900481019282601f1061197657805160ff19168380011785556119a4565b828001600101855582156119a4579182015b828111156119a3578251825591602001919060010190611988565b5b5090506119b191906119b5565b5090565b6119d791905b808211156119d35760008160009055506001016119bb565b5090565b9056fe5265717569726520612076616c69642020696e76656e746f722064657461696c735265717569726520612076616c69642020746563686e6963616c206669656c64206465736372697074696f6ea265627a7a723158209d69daa4d33e9cf54dc55ddce8ffd9bb024ba0553507da908e11e6d2a6d82bbf64736f6c63430005100032",
  "source": "pragma solidity >=0.5.0;\n\n// Smart Contract\n// Use truffle compile to compile the smart contract\n// use truffle migrate --reset comand to create a new copy of the smart contract on the blockchain\n// Use truffle test to run test\ncontract Patent {\n\n    // keep track of how many patents exist in the smart contract\n    uint public patentCount = 0;\n\n    // Invention Details data structure(stores all the attributes of a Invention)\n    struct InventionDetails{\n        uint patent_id;\n        string invention_title;\n        string inventor_details;\n        address inventor;\n        string technical_field;\n        string technical_problem;\n\t\tstring technical_solution;\n        string invention_description;\n    }\n\n    // create and map to store this invention data on the blockchain, use an id as a key, and the value will be a Invention struct\n    mapping(uint => InventionDetails) public inventiondetails;\n\n    struct PatentDetails{\n        uint patent_id;\n        string patent_claims;\n        string registereddate;\n        string expdate;\n        bool renewal_status;\n        bool patent_status;\n    }\n\n    // create and map to store this patent data on the blockchain, use an id as a key, and the value will be a Patent struct\n    mapping(uint => PatentDetails) public patentdetails;\n\n     // Event after adding invention details\n    event addInventionDetails(\n        string invention_title,\n        string inventor_details,\n        address inventor,\n        string technical_field,\n        string technical_problem,\n\t\tstring technical_solution,\n        string invention_description\n    );\n\n     // Event after adding patent details\n    event addPatentDetails(  \n        uint patent_id,\n        string patent_claims,\n        string registereddate,\n        string expdate,\n        bool renewal_status,\n        bool patent_status\n    );\n\n    // Function for register a patent\n    function registerPatent(string memory _invention_title, string memory _inventor_details, string memory _technical_field, string memory _technical_problem, string memory _technical_solution, string memory _invention_description, string memory _patent_claims, string memory _registereddate, string memory _expdate) public {\n        // Require a valid  invention title\n        require(bytes(_invention_title).length > 0, \"Require a valid  invention title\");\n        // Require a valid  inventor details\n        require(bytes(_inventor_details).length > 0, \"Require a valid  inventor details\");\n        // Require a valid  technical field description\n        require(bytes(_invention_description).length > 0, \"Require a valid  technical field description\");\n        // Require a valid  patent claims\n        require(bytes(_patent_claims).length > 0, \"Require a valid  patent claims\");\n        // Increment product count\n        patentCount ++;\n        // Add Invention details\n        inventiondetails[patentCount] = InventionDetails(patentCount, _invention_title, _inventor_details, msg.sender, _technical_field, _technical_problem, _technical_solution, _invention_description);\n        // Add Invention details\n        patentdetails[patentCount] = PatentDetails(patentCount, _patent_claims, _registereddate, _expdate, false, false);\n        // Trigger an event\n        emit addInventionDetails(_invention_title, _inventor_details, msg.sender, _technical_field, _technical_problem, _technical_solution, _invention_description);\n        // Trigger an event\n        emit addPatentDetails(patentCount, _patent_claims, _registereddate, _expdate, false, false);\n    }\n\n}",
  "sourcePath": "E:\\Campuss\\4th year\\1st sem\\INTE 43216 - Research Project\\Patent-Blockchain-Project\\Blockchain-Based-Patent-Authentication-and-Management-Project\\src\\contracts\\Patent.sol",
  "compiler": {
    "name": "solc",
    "version": "0.5.16+commit.9c3226ce.Emscripten.clang"
  },
  "schemaVersion": "3.4.4",
  "updatedAt": "2022-01-16T13:42:42.225Z",
  "networkType": "ethereum",
  "devdoc": {
    "methods": {}
  },
  "userdoc": {
    "methods": {}
  }
}