{
  "contractName": "Patent",
  "abi": [
    {
      "anonymous": false,
      "inputs": [
        {
          "indexed": false,
          "internalType": "bool",
          "name": "USPTO",
          "type": "bool"
        },
        {
          "indexed": false,
          "internalType": "bool",
          "name": "JPO",
          "type": "bool"
        },
        {
          "indexed": false,
          "internalType": "bool",
          "name": "EPO",
          "type": "bool"
        },
        {
          "indexed": false,
          "internalType": "string",
          "name": "USPTO_Approval",
          "type": "string"
        },
        {
          "indexed": false,
          "internalType": "string",
          "name": "JPO_Approval",
          "type": "string"
        },
        {
          "indexed": false,
          "internalType": "string",
          "name": "EPO_Approval",
          "type": "string"
        }
      ],
      "name": "addCheckPatentClaims",
      "type": "event"
    },
    {
      "anonymous": false,
      "inputs": [
        {
          "indexed": false,
          "internalType": "string",
          "name": "invention_title",
          "type": "string"
        },
        {
          "indexed": false,
          "internalType": "string",
          "name": "inventor_details",
          "type": "string"
        },
        {
          "indexed": false,
          "internalType": "address",
          "name": "inventor",
          "type": "address"
        },
        {
          "indexed": false,
          "internalType": "string",
          "name": "technical_field",
          "type": "string"
        },
        {
          "indexed": false,
          "internalType": "string",
          "name": "technical_problem",
          "type": "string"
        },
        {
          "indexed": false,
          "internalType": "string",
          "name": "technical_solution",
          "type": "string"
        },
        {
          "indexed": false,
          "internalType": "string",
          "name": "invention_description",
          "type": "string"
        }
      ],
      "name": "addInventionDetails",
      "type": "event"
    },
    {
      "anonymous": false,
      "inputs": [
        {
          "indexed": false,
          "internalType": "uint256",
          "name": "patent_id",
          "type": "uint256"
        },
        {
          "indexed": false,
          "internalType": "string",
          "name": "registered_date",
          "type": "string"
        },
        {
          "indexed": false,
          "internalType": "string",
          "name": "end_date",
          "type": "string"
        },
        {
          "indexed": false,
          "internalType": "string",
          "name": "license_details",
          "type": "string"
        },
        {
          "indexed": false,
          "internalType": "string",
          "name": "renewal_status",
          "type": "string"
        },
        {
          "indexed": false,
          "internalType": "string",
          "name": "patent_status",
          "type": "string"
        }
      ],
      "name": "addPatentDetails",
      "type": "event"
    },
    {
      "constant": true,
      "inputs": [
        {
          "internalType": "uint256",
          "name": "",
          "type": "uint256"
        }
      ],
      "name": "checkpatentclaims",
      "outputs": [
        {
          "internalType": "uint256",
          "name": "patent_id",
          "type": "uint256"
        },
        {
          "internalType": "bool",
          "name": "USPTO",
          "type": "bool"
        },
        {
          "internalType": "bool",
          "name": "JPO",
          "type": "bool"
        },
        {
          "internalType": "bool",
          "name": "EPO",
          "type": "bool"
        },
        {
          "internalType": "string",
          "name": "USPTO_Approval",
          "type": "string"
        },
        {
          "internalType": "string",
          "name": "JPO_Approval",
          "type": "string"
        },
        {
          "internalType": "string",
          "name": "EPO_Approval",
          "type": "string"
        }
      ],
      "payable": false,
      "stateMutability": "view",
      "type": "function"
    },
    {
      "constant": true,
      "inputs": [
        {
          "internalType": "uint256",
          "name": "",
          "type": "uint256"
        }
      ],
      "name": "inventiondetails",
      "outputs": [
        {
          "internalType": "uint256",
          "name": "patent_id",
          "type": "uint256"
        },
        {
          "internalType": "string",
          "name": "invention_title",
          "type": "string"
        },
        {
          "internalType": "string",
          "name": "inventor_details",
          "type": "string"
        },
        {
          "internalType": "address",
          "name": "inventor",
          "type": "address"
        },
        {
          "internalType": "string",
          "name": "technical_field",
          "type": "string"
        },
        {
          "internalType": "string",
          "name": "technical_problem",
          "type": "string"
        },
        {
          "internalType": "string",
          "name": "technical_solution",
          "type": "string"
        },
        {
          "internalType": "string",
          "name": "invention_description",
          "type": "string"
        }
      ],
      "payable": false,
      "stateMutability": "view",
      "type": "function"
    },
    {
      "constant": true,
      "inputs": [],
      "name": "patentCount",
      "outputs": [
        {
          "internalType": "uint256",
          "name": "",
          "type": "uint256"
        }
      ],
      "payable": false,
      "stateMutability": "view",
      "type": "function"
    },
    {
      "constant": true,
      "inputs": [
        {
          "internalType": "uint256",
          "name": "",
          "type": "uint256"
        }
      ],
      "name": "patentdetails",
      "outputs": [
        {
          "internalType": "uint256",
          "name": "patent_id",
          "type": "uint256"
        },
        {
          "internalType": "string",
          "name": "registered_date",
          "type": "string"
        },
        {
          "internalType": "string",
          "name": "end_date",
          "type": "string"
        },
        {
          "internalType": "string",
          "name": "license_details",
          "type": "string"
        },
        {
          "internalType": "string",
          "name": "renewal_status",
          "type": "string"
        },
        {
          "internalType": "string",
          "name": "patent_status",
          "type": "string"
        }
      ],
      "payable": false,
      "stateMutability": "view",
      "type": "function"
    },
    {
      "constant": false,
      "inputs": [
        {
          "internalType": "string",
          "name": "_invention_title",
          "type": "string"
        },
        {
          "internalType": "string",
          "name": "_inventor_details",
          "type": "string"
        },
        {
          "internalType": "string",
          "name": "_technical_field",
          "type": "string"
        },
        {
          "internalType": "string",
          "name": "_technical_problem",
          "type": "string"
        },
        {
          "internalType": "string",
          "name": "_technical_solution",
          "type": "string"
        },
        {
          "internalType": "string",
          "name": "_invention_description",
          "type": "string"
        },
        {
          "internalType": "string",
          "name": "_registered_date",
          "type": "string"
        },
        {
          "internalType": "string",
          "name": "_end_date",
          "type": "string"
        },
        {
          "internalType": "string",
          "name": "_license_details",
          "type": "string"
        },
        {
          "internalType": "string",
          "name": "_renewal_status",
          "type": "string"
        },
        {
          "internalType": "string",
          "name": "_patent_status",
          "type": "string"
        },
        {
          "internalType": "bool",
          "name": "_USPTO",
          "type": "bool"
        },
        {
          "internalType": "bool",
          "name": "_JPO",
          "type": "bool"
        },
        {
          "internalType": "bool",
          "name": "_EPO",
          "type": "bool"
        }
      ],
      "name": "registerPatent",
      "outputs": [],
      "payable": false,
      "stateMutability": "nonpayable",
      "type": "function"
    },
    {
      "constant": false,
      "inputs": [
        {
          "internalType": "bool",
          "name": "_USPTO",
          "type": "bool"
        },
        {
          "internalType": "bool",
          "name": "_JPO",
          "type": "bool"
        },
        {
          "internalType": "bool",
          "name": "_EPO",
          "type": "bool"
        }
      ],
      "name": "handlePatentClaims",
      "outputs": [],
      "payable": false,
      "stateMutability": "nonpayable",
      "type": "function"
    },
    {
      "constant": false,
      "inputs": [
        {
          "internalType": "uint256",
          "name": "patent_id",
          "type": "uint256"
        }
      ],
      "name": "acceptPatentApplicationByUSPTO",
      "outputs": [],
      "payable": false,
      "stateMutability": "nonpayable",
      "type": "function"
    }
  ],
  "bytecode": "0x60806040526000805534801561001457600080fd5b5061328b806100246000396000f3fe608060405234801561001057600080fd5b506004361061007d5760003560e01c80634fcb5a181161005b5780634fcb5a1814610625578063636bc4f614610ceb578063b018cfee14610d19578063b084c84114610ec05761007d565b80633a9f6df3146100825780634ac41e131461037f5780634ca00d95146105dd575b600080fd5b6100ae6004803603602081101561009857600080fd5b8101908080359060200190929190505050610ede565b6040518089815260200180602001806020018873ffffffffffffffffffffffffffffffffffffffff1673ffffffffffffffffffffffffffffffffffffffff1681526020018060200180602001806020018060200187810387528e818151815260200191508051906020019080838360005b8381101561013a57808201518184015260208101905061011f565b50505050905090810190601f1680156101675780820380516001836020036101000a031916815260200191505b5087810386528d818151815260200191508051906020019080838360005b838110156101a0578082015181840152602081019050610185565b50505050905090810190601f1680156101cd5780820380516001836020036101000a031916815260200191505b5087810385528b818151815260200191508051906020019080838360005b838110156102065780820151818401526020810190506101eb565b50505050905090810190601f1680156102335780820380516001836020036101000a031916815260200191505b5087810384528a818151815260200191508051906020019080838360005b8381101561026c578082015181840152602081019050610251565b50505050905090810190601f1680156102995780820380516001836020036101000a031916815260200191505b50878103835289818151815260200191508051906020019080838360005b838110156102d25780820151818401526020810190506102b7565b50505050905090810190601f1680156102ff5780820380516001836020036101000a031916815260200191505b50878103825288818151815260200191508051906020019080838360005b8381101561033857808201518184015260208101905061031d565b50505050905090810190601f1680156103655780820380516001836020036101000a031916815260200191505b509e50505050505050505050505050505060405180910390f35b6103ab6004803603602081101561039557600080fd5b81019080803590602001909291905050506112d6565b60405180878152602001806020018060200180602001806020018060200186810386528b818151815260200191508051906020019080838360005b838110156104015780820151818401526020810190506103e6565b50505050905090810190601f16801561042e5780820380516001836020036101000a031916815260200191505b5086810385528a818151815260200191508051906020019080838360005b8381101561046757808201518184015260208101905061044c565b50505050905090810190601f1680156104945780820380516001836020036101000a031916815260200191505b50868103845289818151815260200191508051906020019080838360005b838110156104cd5780820151818401526020810190506104b2565b50505050905090810190601f1680156104fa5780820380516001836020036101000a031916815260200191505b50868103835288818151815260200191508051906020019080838360005b83811015610533578082015181840152602081019050610518565b50505050905090810190601f1680156105605780820380516001836020036101000a031916815260200191505b50868103825287818151815260200191508051906020019080838360005b8381101561059957808201518184015260208101905061057e565b50505050905090810190601f1680156105c65780820380516001836020036101000a031916815260200191505b509b50505050505050505050505060405180910390f35b610623600480360360608110156105f357600080fd5b8101908080351515906020019092919080351515906020019092919080351515906020019092919050505061160a565b005b610ce960048036036101c081101561063c57600080fd5b810190808035906020019064010000000081111561065957600080fd5b82018360208201111561066b57600080fd5b8035906020019184600183028401116401000000008311171561068d57600080fd5b91908080601f016020809104026020016040519081016040528093929190818152602001838380828437600081840152601f19601f820116905080830192505050505050509192919290803590602001906401000000008111156106f057600080fd5b82018360208201111561070257600080fd5b8035906020019184600183028401116401000000008311171561072457600080fd5b91908080601f016020809104026020016040519081016040528093929190818152602001838380828437600081840152601f19601f8201169050808301925050505050505091929192908035906020019064010000000081111561078757600080fd5b82018360208201111561079957600080fd5b803590602001918460018302840111640100000000831117156107bb57600080fd5b91908080601f016020809104026020016040519081016040528093929190818152602001838380828437600081840152601f19601f8201169050808301925050505050505091929192908035906020019064010000000081111561081e57600080fd5b82018360208201111561083057600080fd5b8035906020019184600183028401116401000000008311171561085257600080fd5b91908080601f016020809104026020016040519081016040528093929190818152602001838380828437600081840152601f19601f820116905080830192505050505050509192919290803590602001906401000000008111156108b557600080fd5b8201836020820111156108c757600080fd5b803590602001918460018302840111640100000000831117156108e957600080fd5b91908080601f016020809104026020016040519081016040528093929190818152602001838380828437600081840152601f19601f8201169050808301925050505050505091929192908035906020019064010000000081111561094c57600080fd5b82018360208201111561095e57600080fd5b8035906020019184600183028401116401000000008311171561098057600080fd5b91908080601f016020809104026020016040519081016040528093929190818152602001838380828437600081840152601f19601f820116905080830192505050505050509192919290803590602001906401000000008111156109e357600080fd5b8201836020820111156109f557600080fd5b80359060200191846001830284011164010000000083111715610a1757600080fd5b91908080601f016020809104026020016040519081016040528093929190818152602001838380828437600081840152601f19601f82011690508083019250505050505050919291929080359060200190640100000000811115610a7a57600080fd5b820183602082011115610a8c57600080fd5b80359060200191846001830284011164010000000083111715610aae57600080fd5b91908080601f016020809104026020016040519081016040528093929190818152602001838380828437600081840152601f19601f82011690508083019250505050505050919291929080359060200190640100000000811115610b1157600080fd5b820183602082011115610b2357600080fd5b80359060200191846001830284011164010000000083111715610b4557600080fd5b91908080601f016020809104026020016040519081016040528093929190818152602001838380828437600081840152601f19601f82011690508083019250505050505050919291929080359060200190640100000000811115610ba857600080fd5b820183602082011115610bba57600080fd5b80359060200191846001830284011164010000000083111715610bdc57600080fd5b91908080601f016020809104026020016040519081016040528093929190818152602001838380828437600081840152601f19601f82011690508083019250505050505050919291929080359060200190640100000000811115610c3f57600080fd5b820183602082011115610c5157600080fd5b80359060200191846001830284011164010000000083111715610c7357600080fd5b91908080601f016020809104026020016040519081016040528093929190818152602001838380828437600081840152601f19601f820116905080830192505050505050509192919290803515159060200190929190803515159060200190929190803515159060200190929190505050611a4d565b005b610d1760048036036020811015610d0157600080fd5b81019080803590602001909291905050506124ba565b005b610d4560048036036020811015610d2f57600080fd5b8101908080359060200190929190505050612eb9565b60405180888152602001871515151581526020018615151515815260200185151515158152602001806020018060200180602001848103845287818151815260200191508051906020019080838360005b83811015610db1578082015181840152602081019050610d96565b50505050905090810190601f168015610dde5780820380516001836020036101000a031916815260200191505b50848103835286818151815260200191508051906020019080838360005b83811015610e17578082015181840152602081019050610dfc565b50505050905090810190601f168015610e445780820380516001836020036101000a031916815260200191505b50848103825285818151815260200191508051906020019080838360005b83811015610e7d578082015181840152602081019050610e62565b50505050905090810190601f168015610eaa5780820380516001836020036101000a031916815260200191505b509a505050505050505050505060405180910390f35b610ec86130ea565b6040518082815260200191505060405180910390f35b6001602052806000526040600020600091509050806000015490806001018054600181600116156101000203166002900480601f016020809104026020016040519081016040528092919081815260200182805460018160011615610100020316600290048015610f905780601f10610f6557610100808354040283529160200191610f90565b820191906000526020600020905b815481529060010190602001808311610f7357829003601f168201915b505050505090806002018054600181600116156101000203166002900480601f01602080910402602001604051908101604052809291908181526020018280546001816001161561010002031660029004801561102e5780601f106110035761010080835404028352916020019161102e565b820191906000526020600020905b81548152906001019060200180831161101157829003601f168201915b5050505050908060030160009054906101000a900473ffffffffffffffffffffffffffffffffffffffff1690806004018054600181600116156101000203166002900480601f0160208091040260200160405190810160405280929190818152602001828054600181600116156101000203166002900480156110f25780601f106110c7576101008083540402835291602001916110f2565b820191906000526020600020905b8154815290600101906020018083116110d557829003601f168201915b505050505090806005018054600181600116156101000203166002900480601f0160208091040260200160405190810160405280929190818152602001828054600181600116156101000203166002900480156111905780601f1061116557610100808354040283529160200191611190565b820191906000526020600020905b81548152906001019060200180831161117357829003601f168201915b505050505090806006018054600181600116156101000203166002900480601f01602080910402602001604051908101604052809291908181526020018280546001816001161561010002031660029004801561122e5780601f106112035761010080835404028352916020019161122e565b820191906000526020600020905b81548152906001019060200180831161121157829003601f168201915b505050505090806007018054600181600116156101000203166002900480601f0160208091040260200160405190810160405280929190818152602001828054600181600116156101000203166002900480156112cc5780601f106112a1576101008083540402835291602001916112cc565b820191906000526020600020905b8154815290600101906020018083116112af57829003601f168201915b5050505050905088565b6002602052806000526040600020600091509050806000015490806001018054600181600116156101000203166002900480601f0160208091040260200160405190810160405280929190818152602001828054600181600116156101000203166002900480156113885780601f1061135d57610100808354040283529160200191611388565b820191906000526020600020905b81548152906001019060200180831161136b57829003601f168201915b505050505090806002018054600181600116156101000203166002900480601f0160208091040260200160405190810160405280929190818152602001828054600181600116156101000203166002900480156114265780601f106113fb57610100808354040283529160200191611426565b820191906000526020600020905b81548152906001019060200180831161140957829003601f168201915b505050505090806003018054600181600116156101000203166002900480601f0160208091040260200160405190810160405280929190818152602001828054600181600116156101000203166002900480156114c45780601f10611499576101008083540402835291602001916114c4565b820191906000526020600020905b8154815290600101906020018083116114a757829003601f168201915b505050505090806004018054600181600116156101000203166002900480601f0160208091040260200160405190810160405280929190818152602001828054600181600116156101000203166002900480156115625780601f1061153757610100808354040283529160200191611562565b820191906000526020600020905b81548152906001019060200180831161154557829003601f168201915b505050505090806005018054600181600116156101000203166002900480601f0160208091040260200160405190810160405280929190818152602001828054600181600116156101000203166002900480156116005780601f106115d557610100808354040283529160200191611600565b820191906000526020600020905b8154815290600101906020018083116115e357829003601f168201915b5050505050905086565b6060806060600115158615151415611659576040518060400160405280600781526020017f50656e64696e67000000000000000000000000000000000000000000000000008152509250611692565b6040518060400160405280600481526020017f4e554c4c0000000000000000000000000000000000000000000000000000000081525092505b6001151585151514156116dc576040518060400160405280600781526020017f50656e64696e67000000000000000000000000000000000000000000000000008152509150611715565b6040518060400160405280600481526020017f4e554c4c0000000000000000000000000000000000000000000000000000000081525091505b60011515841515141561175f576040518060400160405280600781526020017f50656e64696e67000000000000000000000000000000000000000000000000008152509050611798565b6040518060400160405280600481526020017f4e554c4c0000000000000000000000000000000000000000000000000000000081525090505b6040518060e0016040528060005481526020018715158152602001861515815260200185151581526020018481526020018381526020018281525060036000805481526020019081526020016000206000820151816000015560208201518160010160006101000a81548160ff02191690831515021790555060408201518160010160016101000a81548160ff02191690831515021790555060608201518160010160026101000a81548160ff021916908315150217905550608082015181600201908051906020019061186d9291906130f0565b5060a082015181600301908051906020019061188a9291906130f0565b5060c08201518160040190805190602001906118a79291906130f0565b509050507fb1c55458fefed9de3cd673b9d60ae6ffad341df945f664ada0c69ca08622acb086868686868660405180871515151581526020018615151515815260200185151515158152602001806020018060200180602001848103845287818151815260200191508051906020019080838360005b8381101561193857808201518184015260208101905061191d565b50505050905090810190601f1680156119655780820380516001836020036101000a031916815260200191505b50848103835286818151815260200191508051906020019080838360005b8381101561199e578082015181840152602081019050611983565b50505050905090810190601f1680156119cb5780820380516001836020036101000a031916815260200191505b50848103825285818151815260200191508051906020019080838360005b83811015611a045780820151818401526020810190506119e9565b50505050905090810190601f168015611a315780820380516001836020036101000a031916815260200191505b50995050505050505050505060405180910390a1505050505050565b60008e5111611ac4576040517f08c379a00000000000000000000000000000000000000000000000000000000081526004018080602001828103825260178152602001807f5265717569726520696e76656e74696f6e207469746c6500000000000000000081525060200191505060405180910390fd5b60008d5111611b3b576040517f08c379a00000000000000000000000000000000000000000000000000000000081526004018080602001828103825260188152602001807f5265717569726520696e76656e746f722064657461696c73000000000000000081525060200191505060405180910390fd5b60008c5111611b95576040517f08c379a00000000000000000000000000000000000000000000000000000000081526004018080602001828103825260238152602001806132346023913960400191505060405180910390fd5b60008b5111611c0c576040517f08c379a00000000000000000000000000000000000000000000000000000000081526004018080602001828103825260198152602001807f5265717569726520746563686e6963616c2070726f626c656d0000000000000081525060200191505060405180910390fd5b60008a5111611c83576040517f08c379a000000000000000000000000000000000000000000000000000000000815260040180806020018281038252601a8152602001807f5265717569726520746563686e6963616c20736f6c7574696f6e00000000000081525060200191505060405180910390fd5b6000895111611cfa576040517f08c379a000000000000000000000000000000000000000000000000000000000815260040180806020018281038252601d8152602001807f5265717569726520696e76656e74696f6e206465736372697074696f6e00000081525060200191505060405180910390fd5b6000808154809291906001019190505550611d1683838361160a565b60405180610100016040528060005481526020018f81526020018e81526020013373ffffffffffffffffffffffffffffffffffffffff1681526020018d81526020018c81526020018b81526020018a8152506001600080548152602001908152602001600020600082015181600001556020820151816001019080519060200190611da29291906130f0565b506040820151816002019080519060200190611dbf9291906130f0565b5060608201518160030160006101000a81548173ffffffffffffffffffffffffffffffffffffffff021916908373ffffffffffffffffffffffffffffffffffffffff1602179055506080820151816004019080519060200190611e239291906130f0565b5060a0820151816005019080519060200190611e409291906130f0565b5060c0820151816006019080519060200190611e5d9291906130f0565b5060e0820151816007019080519060200190611e7a9291906130f0565b509050506040518060c001604052806000548152602001898152602001888152602001878152602001868152602001858152506002600080548152602001908152602001600020600082015181600001556020820151816001019080519060200190611ee79291906130f0565b506040820151816002019080519060200190611f049291906130f0565b506060820151816003019080519060200190611f219291906130f0565b506080820151816004019080519060200190611f3e9291906130f0565b5060a0820151816005019080519060200190611f5b9291906130f0565b509050507f6fcae015bd932120bda37eab1da790873390815c02c1521af40ad19580f66b328e8e338f8f8f8f6040518080602001806020018873ffffffffffffffffffffffffffffffffffffffff1673ffffffffffffffffffffffffffffffffffffffff1681526020018060200180602001806020018060200187810387528e818151815260200191508051906020019080838360005b8381101561200d578082015181840152602081019050611ff2565b50505050905090810190601f16801561203a5780820380516001836020036101000a031916815260200191505b5087810386528d818151815260200191508051906020019080838360005b83811015612073578082015181840152602081019050612058565b50505050905090810190601f1680156120a05780820380516001836020036101000a031916815260200191505b5087810385528b818151815260200191508051906020019080838360005b838110156120d95780820151818401526020810190506120be565b50505050905090810190601f1680156121065780820380516001836020036101000a031916815260200191505b5087810384528a818151815260200191508051906020019080838360005b8381101561213f578082015181840152602081019050612124565b50505050905090810190601f16801561216c5780820380516001836020036101000a031916815260200191505b50878103835289818151815260200191508051906020019080838360005b838110156121a557808201518184015260208101905061218a565b50505050905090810190601f1680156121d25780820380516001836020036101000a031916815260200191505b50878103825288818151815260200191508051906020019080838360005b8381101561220b5780820151818401526020810190506121f0565b50505050905090810190601f1680156122385780820380516001836020036101000a031916815260200191505b509d505050505050505050505050505060405180910390a17f039dcd896b99df190ca2f3fa704af291e80a210b974974484f5e5dfde68bfc97600054898989898960405180878152602001806020018060200180602001806020018060200186810386528b818151815260200191508051906020019080838360005b838110156122cf5780820151818401526020810190506122b4565b50505050905090810190601f1680156122fc5780820380516001836020036101000a031916815260200191505b5086810385528a818151815260200191508051906020019080838360005b8381101561233557808201518184015260208101905061231a565b50505050905090810190601f1680156123625780820380516001836020036101000a031916815260200191505b50868103845289818151815260200191508051906020019080838360005b8381101561239b578082015181840152602081019050612380565b50505050905090810190601f1680156123c85780820380516001836020036101000a031916815260200191505b50868103835288818151815260200191508051906020019080838360005b838110156124015780820151818401526020810190506123e6565b50505050905090810190601f16801561242e5780820380516001836020036101000a031916815260200191505b50868103825287818151815260200191508051906020019080838360005b8381101561246757808201518184015260208101905061244c565b50505050905090810190601f1680156124945780820380516001836020036101000a031916815260200191505b509b50505050505050505050505060405180910390a15050505050505050505050505050565b6124c2613170565b600160008381526020019081526020016000206040518061010001604052908160008201548152602001600182018054600181600116156101000203166002900480601f0160208091040260200160405190810160405280929190818152602001828054600181600116156101000203166002900480156125845780601f1061255957610100808354040283529160200191612584565b820191906000526020600020905b81548152906001019060200180831161256757829003601f168201915b50505050508152602001600282018054600181600116156101000203166002900480601f0160208091040260200160405190810160405280929190818152602001828054600181600116156101000203166002900480156126265780601f106125fb57610100808354040283529160200191612626565b820191906000526020600020905b81548152906001019060200180831161260957829003601f168201915b505050505081526020016003820160009054906101000a900473ffffffffffffffffffffffffffffffffffffffff1673ffffffffffffffffffffffffffffffffffffffff1673ffffffffffffffffffffffffffffffffffffffff168152602001600482018054600181600116156101000203166002900480601f01602080910402602001604051908101604052809291908181526020018280546001816001161561010002031660029004801561271e5780601f106126f35761010080835404028352916020019161271e565b820191906000526020600020905b81548152906001019060200180831161270157829003601f168201915b50505050508152602001600582018054600181600116156101000203166002900480601f0160208091040260200160405190810160405280929190818152602001828054600181600116156101000203166002900480156127c05780601f10612795576101008083540402835291602001916127c0565b820191906000526020600020905b8154815290600101906020018083116127a357829003601f168201915b50505050508152602001600682018054600181600116156101000203166002900480601f0160208091040260200160405190810160405280929190818152602001828054600181600116156101000203166002900480156128625780601f1061283757610100808354040283529160200191612862565b820191906000526020600020905b81548152906001019060200180831161284557829003601f168201915b50505050508152602001600782018054600181600116156101000203166002900480601f0160208091040260200160405190810160405280929190818152602001828054600181600116156101000203166002900480156129045780601f106128d957610100808354040283529160200191612904565b820191906000526020600020905b8154815290600101906020018083116128e757829003601f168201915b50505050508152505090506129176131cb565b600360008481526020019081526020016000206040518060e0016040529081600082015481526020016001820160009054906101000a900460ff161515151581526020016001820160019054906101000a900460ff161515151581526020016001820160029054906101000a900460ff16151515158152602001600282018054600181600116156101000203166002900480601f016020809104026020016040519081016040528092919081815260200182805460018160011615610100020316600290048015612a295780601f106129fe57610100808354040283529160200191612a29565b820191906000526020600020905b815481529060010190602001808311612a0c57829003601f168201915b50505050508152602001600382018054600181600116156101000203166002900480601f016020809104026020016040519081016040528092919081815260200182805460018160011615610100020316600290048015612acb5780601f10612aa057610100808354040283529160200191612acb565b820191906000526020600020905b815481529060010190602001808311612aae57829003601f168201915b50505050508152602001600482018054600181600116156101000203166002900480601f016020809104026020016040519081016040528092919081815260200182805460018160011615610100020316600290048015612b6d5780601f10612b4257610100808354040283529160200191612b6d565b820191906000526020600020905b815481529060010190602001808311612b5057829003601f168201915b505050505081525050905060008260600151905060008360000151118015612b9b5750600054836000015111155b612ba457600080fd5b8160200151612bb257600080fd5b3373ffffffffffffffffffffffffffffffffffffffff168173ffffffffffffffffffffffffffffffffffffffff161415612beb57600080fd5b6040518060400160405280600881526020017f417070726f766564000000000000000000000000000000000000000000000000815250826080018190525081600360008681526020019081526020016000206000820151816000015560208201518160010160006101000a81548160ff02191690831515021790555060408201518160010160016101000a81548160ff02191690831515021790555060608201518160010160026101000a81548160ff0219169083151502179055506080820151816002019080519060200190612cc39291906130f0565b5060a0820151816003019080519060200190612ce09291906130f0565b5060c0820151816004019080519060200190612cfd9291906130f0565b509050507fb1c55458fefed9de3cd673b9d60ae6ffad341df945f664ada0c69ca08622acb082602001518360400151846060015185608001518660a001518760c0015160405180871515151581526020018615151515815260200185151515158152602001806020018060200180602001848103845287818151815260200191508051906020019080838360005b83811015612da6578082015181840152602081019050612d8b565b50505050905090810190601f168015612dd35780820380516001836020036101000a031916815260200191505b50848103835286818151815260200191508051906020019080838360005b83811015612e0c578082015181840152602081019050612df1565b50505050905090810190601f168015612e395780820380516001836020036101000a031916815260200191505b50848103825285818151815260200191508051906020019080838360005b83811015612e72578082015181840152602081019050612e57565b50505050905090810190601f168015612e9f5780820380516001836020036101000a031916815260200191505b50995050505050505050505060405180910390a150505050565b60036020528060005260406000206000915090508060000154908060010160009054906101000a900460ff16908060010160019054906101000a900460ff16908060010160029054906101000a900460ff1690806002018054600181600116156101000203166002900480601f016020809104026020016040519081016040528092919081815260200182805460018160011615610100020316600290048015612fa45780601f10612f7957610100808354040283529160200191612fa4565b820191906000526020600020905b815481529060010190602001808311612f8757829003601f168201915b505050505090806003018054600181600116156101000203166002900480601f0160208091040260200160405190810160405280929190818152602001828054600181600116156101000203166002900480156130425780601f1061301757610100808354040283529160200191613042565b820191906000526020600020905b81548152906001019060200180831161302557829003601f168201915b505050505090806004018054600181600116156101000203166002900480601f0160208091040260200160405190810160405280929190818152602001828054600181600116156101000203166002900480156130e05780601f106130b5576101008083540402835291602001916130e0565b820191906000526020600020905b8154815290600101906020018083116130c357829003601f168201915b5050505050905087565b60005481565b828054600181600116156101000203166002900490600052602060002090601f016020900481019282601f1061313157805160ff191683800117855561315f565b8280016001018555821561315f579182015b8281111561315e578251825591602001919060010190613143565b5b50905061316c919061320e565b5090565b604051806101000160405280600081526020016060815260200160608152602001600073ffffffffffffffffffffffffffffffffffffffff168152602001606081526020016060815260200160608152602001606081525090565b6040518060e00160405280600081526020016000151581526020016000151581526020016000151581526020016060815260200160608152602001606081525090565b61323091905b8082111561322c576000816000905550600101613214565b5090565b9056fe5265717569726520746563686e6963616c206669656c64206465736372697074696f6ea265627a7a72315820a84f041d6b0ce21b939fff0ffbb3ae37ea60e76c8a21616b59ae63798276fc2664736f6c63430005100032",
  "source": "pragma solidity >=0.5.0;\n\n// Smart Contract\n// Use truffle compile to compile the smart contract\n// use truffle migrate --reset comand to create a new copy of the smart contract on the blockchain\n// Use truffle test to run test\ncontract Patent {\n\n    // address public uspto_examiner; \n        \n    // constructor() public {\n    //     uspto_examiner = msg.sender; \n    // }\n    \n    // modifier onlyExaminer() { \n    //     require(msg.sender == uspto_examiner, \"Action can only be performed by Patent Examiner\");\n    //     _;\n    // }\n\n    // keep track of how many patents exist in the smart contract\n    uint public patentCount = 0;\n\n    // Invention Details data structure(stores all the attributes of a Invention)\n    struct InventionDetails{\n        uint patent_id;\n        string invention_title;\n        string inventor_details;\n        address inventor;\n        string technical_field;\n        string technical_problem;\n\t\tstring technical_solution;\n        string invention_description;\n    }\n\n    // create and map to store this invention data on the blockchain, use an id as a key, and the value will be a Invention struct\n    mapping(uint => InventionDetails) public inventiondetails;\n\n    // Patent Details data structure(stores all the attributes of a Patent details)\n    struct PatentDetails{\n        uint patent_id;\n        string registered_date;\n        string end_date;\n        string license_details;\n        string renewal_status;\n        string patent_status;\n    }\n\n    // create and map to store this patent data on the blockchain, use an id as a key, and the value will be a Patent Details struct\n    mapping(uint => PatentDetails) public patentdetails;\n\n    // Check Patent Claims data structure(stores all the checking Patent claims)\n    struct checkPatentClaims{\n        uint patent_id;\n        bool USPTO;\n        bool JPO;\n        bool EPO;\n        string USPTO_Approval;\n        string JPO_Approval;\n        string EPO_Approval;\n    }\n\n    // create and map to store this checking patent claims data on the blockchain, use an id as a key, and the value will be a Check Patent claims struct\n    mapping(uint => checkPatentClaims) public checkpatentclaims;\n\n    // Event after adding invention details\n    event addInventionDetails(\n        string invention_title,\n        string inventor_details,\n        address inventor,\n        string technical_field,\n        string technical_problem,\n\t\tstring technical_solution,\n        string invention_description\n    );\n\n    // Event after adding patent details\n    event addPatentDetails(  \n        uint patent_id,\n        string registered_date,\n        string end_date,\n        string license_details,\n        string renewal_status,\n        string patent_status\n    );\n\n    // Event after adding patent claims\n    event addCheckPatentClaims(  \n        bool USPTO,\n        bool JPO,\n        bool EPO,\n        string USPTO_Approval,\n        string JPO_Approval,\n        string EPO_Approval\n    );\n\n    // Function for register a patent\n    function registerPatent(string memory _invention_title, string memory _inventor_details, string memory _technical_field, string memory _technical_problem, string memory _technical_solution, string memory _invention_description, string memory _registered_date, string memory _end_date, string memory _license_details, string memory _renewal_status, string memory _patent_status, bool _USPTO, bool _JPO, bool _EPO) public {\n        // Require a valid  invention title\n        require(bytes(_invention_title).length > 0, \"Require invention title\");\n        // Require a valid  inventor details\n        require(bytes(_inventor_details).length > 0, \"Require inventor details\");\n        // Require a valid  technical field description\n        require(bytes(_technical_field).length > 0, \"Require technical field description\");\n        // Require a valid  Technical Problem Details\n        require(bytes(_technical_problem).length > 0, \"Require technical problem\");\n        // Require a valid  Technical solution details\n        require(bytes(_technical_solution).length > 0, \"Require technical solution\");\n        // Require a valid  invention description details\n        require(bytes(_invention_description).length > 0, \"Require invention description\");      \n\n        // Increment product count\n        patentCount ++;\n\n        handlePatentClaims(_USPTO, _JPO, _EPO);\n\n        // Add Invention details\n        inventiondetails[patentCount] = InventionDetails(patentCount, _invention_title, _inventor_details, msg.sender, _technical_field, _technical_problem, _technical_solution, _invention_description);\n        // Add Patent details\n        patentdetails[patentCount] = PatentDetails(patentCount, _registered_date, _end_date, _license_details, _renewal_status, _patent_status);\n\n        // Trigger an event\n        emit addInventionDetails(_invention_title, _inventor_details, msg.sender, _technical_field, _technical_problem, _technical_solution, _invention_description);\n        // Trigger an event\n        emit addPatentDetails(patentCount, _registered_date, _end_date, _license_details, _renewal_status, _patent_status);\n    }\n\n     // Function for handle patent claims\n    function handlePatentClaims(bool _USPTO, bool _JPO, bool _EPO) public {\n\n        string memory _USPTO_Status;\n        string memory _JPO_Status;\n        string memory _EPO_Status;\n\n        if(_USPTO == true){\n            _USPTO_Status = \"Pending\";\n        }\n        else{\n            _USPTO_Status = \"NULL\";\n        }\n        if(_JPO == true){\n            _JPO_Status = \"Pending\";\n        }\n        else{\n            _JPO_Status = \"NULL\";\n        }\n        if(_EPO == true){\n            _EPO_Status = \"Pending\";\n        }\n        else{\n            _EPO_Status = \"NULL\";\n        }\n\n        // Add Patent check patent claims details\n        checkpatentclaims[patentCount] = checkPatentClaims(patentCount, _USPTO, _JPO, _EPO, _USPTO_Status, _JPO_Status, _EPO_Status);\n\n        // Trigger an event\n        emit addCheckPatentClaims(_USPTO, _JPO, _EPO, _USPTO_Status, _JPO_Status, _EPO_Status);\n    }\n\n    function acceptPatentApplicationByUSPTO(uint patent_id) public {\n        // Fetch the Invention Details\n        InventionDetails memory inventiondetail = inventiondetails[patent_id];\n        // Fetch the Patent Details\n        checkPatentClaims memory checkpatentclaim = checkpatentclaims[patent_id];\n        // Fetch the patent owner\n        address _inventor = inventiondetail.inventor;\n        // Make sure the patent has a valid id\n        require(inventiondetail.patent_id > 0 && inventiondetail.patent_id <= patentCount);\n        // Require that the patent has not been accepted already\n        require(checkpatentclaim.USPTO);\n        // Require that the patent examiner is not the inventor\n        require(_inventor != msg.sender);\n        // Mark as approved by USPTO\n        checkpatentclaim.USPTO_Approval = \"Approved\";\n        // Update the product\n        checkpatentclaims[patent_id] = checkpatentclaim;\n        // Trigger an event\n        emit addCheckPatentClaims(checkpatentclaim.USPTO, checkpatentclaim.JPO, checkpatentclaim.EPO, checkpatentclaim.USPTO_Approval, checkpatentclaim.JPO_Approval, checkpatentclaim.EPO_Approval);\n    }\n}",
  "sourcePath": "E:\\Campuss\\4th year\\1st sem\\INTE 43216 - Research Project\\Patent-Blockchain-Project\\Blockchain-Based-Patent-Authentication-and-Management-Project\\src\\contracts\\Patent.sol",
  "compiler": {
    "name": "solc",
    "version": "0.5.16+commit.9c3226ce.Emscripten.clang"
  },
  "schemaVersion": "3.4.4",
  "updatedAt": "2022-03-01T15:05:29.262Z",
  "networkType": "ethereum",
  "devdoc": {
    "methods": {}
  },
  "userdoc": {
    "methods": {}
  }
}